{
  "contractName": "ChimpPublicSale",
  "abi": [
    {
      "inputs": [
        {
          "internalType": "contract IERC20",
          "name": "_CHIMP_TOKEN",
          "type": "address"
        },
        {
          "internalType": "uint256",
          "name": "price",
          "type": "uint256"
        },
        {
          "internalType": "uint256",
          "name": "_maxPurchaseLimit",
          "type": "uint256"
        }
      ],
      "stateMutability": "nonpayable",
      "type": "constructor"
    },
    {
      "anonymous": false,
      "inputs": [
        {
          "indexed": true,
          "internalType": "address",
          "name": "previousOwner",
          "type": "address"
        },
        {
          "indexed": true,
          "internalType": "address",
          "name": "newOwner",
          "type": "address"
        }
      ],
      "name": "OwnershipTransferred",
      "type": "event"
    },
    {
      "anonymous": false,
      "inputs": [
        {
          "indexed": false,
          "internalType": "uint256",
          "name": "amount",
          "type": "uint256"
        }
      ],
      "name": "onClaimed",
      "type": "event"
    },
    {
      "anonymous": false,
      "inputs": [
        {
          "indexed": false,
          "internalType": "uint256",
          "name": "ethAmount",
          "type": "uint256"
        },
        {
          "indexed": false,
          "internalType": "uint256",
          "name": "chimpAmount",
          "type": "uint256"
        }
      ],
      "name": "onDeposit",
      "type": "event"
    },
    {
      "inputs": [],
      "name": "CHIMP_TOKEN",
      "outputs": [
        {
          "internalType": "contract IERC20",
          "name": "",
          "type": "address"
        }
      ],
      "stateMutability": "view",
      "type": "function",
      "constant": true
    },
    {
      "inputs": [],
      "name": "chimpPrice",
      "outputs": [
        {
          "internalType": "uint256",
          "name": "",
          "type": "uint256"
        }
      ],
      "stateMutability": "view",
      "type": "function",
      "constant": true
    },
    {
      "inputs": [],
      "name": "isClaimEnabled",
      "outputs": [
        {
          "internalType": "bool",
          "name": "",
          "type": "bool"
        }
      ],
      "stateMutability": "view",
      "type": "function",
      "constant": true
    },
    {
      "inputs": [],
      "name": "isDepositEnabled",
      "outputs": [
        {
          "internalType": "bool",
          "name": "",
          "type": "bool"
        }
      ],
      "stateMutability": "view",
      "type": "function",
      "constant": true
    },
    {
      "inputs": [],
      "name": "maxPurchaseAmount",
      "outputs": [
        {
          "internalType": "uint256",
          "name": "",
          "type": "uint256"
        }
      ],
      "stateMutability": "view",
      "type": "function",
      "constant": true
    },
    {
      "inputs": [],
      "name": "owner",
      "outputs": [
        {
          "internalType": "address",
          "name": "",
          "type": "address"
        }
      ],
      "stateMutability": "view",
      "type": "function",
      "constant": true
    },
    {
      "inputs": [
        {
          "internalType": "address",
          "name": "",
          "type": "address"
        }
      ],
      "name": "participations",
      "outputs": [
        {
          "internalType": "uint256",
          "name": "",
          "type": "uint256"
        }
      ],
      "stateMutability": "view",
      "type": "function",
      "constant": true
    },
    {
      "inputs": [],
      "name": "renounceOwnership",
      "outputs": [],
      "stateMutability": "nonpayable",
      "type": "function"
    },
    {
      "inputs": [
        {
          "internalType": "address",
          "name": "",
          "type": "address"
        }
      ],
      "name": "tokensToBeClaimed",
      "outputs": [
        {
          "internalType": "uint256",
          "name": "",
          "type": "uint256"
        }
      ],
      "stateMutability": "view",
      "type": "function",
      "constant": true
    },
    {
      "inputs": [
        {
          "internalType": "address",
          "name": "newOwner",
          "type": "address"
        }
      ],
      "name": "transferOwnership",
      "outputs": [],
      "stateMutability": "nonpayable",
      "type": "function"
    },
    {
      "inputs": [],
      "name": "whiteListRoot",
      "outputs": [
        {
          "internalType": "bytes32",
          "name": "",
          "type": "bytes32"
        }
      ],
      "stateMutability": "view",
      "type": "function",
      "constant": true
    },
    {
      "inputs": [],
      "name": "flipDepositState",
      "outputs": [],
      "stateMutability": "nonpayable",
      "type": "function"
    },
    {
      "inputs": [],
      "name": "flipClaimState",
      "outputs": [],
      "stateMutability": "nonpayable",
      "type": "function"
    },
    {
      "inputs": [
        {
          "internalType": "uint256",
          "name": "amount",
          "type": "uint256"
        }
      ],
      "name": "setMaxPurchaseAmount",
      "outputs": [],
      "stateMutability": "nonpayable",
      "type": "function"
    },
    {
      "inputs": [
        {
          "internalType": "uint256",
          "name": "amount",
          "type": "uint256"
        }
      ],
      "name": "setChimpPrice",
      "outputs": [],
      "stateMutability": "nonpayable",
      "type": "function"
    },
    {
      "inputs": [
        {
          "internalType": "bytes32[]",
          "name": "_merkleProof",
          "type": "bytes32[]"
        }
      ],
      "name": "deposit",
      "outputs": [],
      "stateMutability": "payable",
      "type": "function",
      "payable": true
    },
    {
      "inputs": [
        {
          "internalType": "uint256",
          "name": "amount",
          "type": "uint256"
        }
      ],
      "name": "withdrawETH",
      "outputs": [],
      "stateMutability": "nonpayable",
      "type": "function"
    },
    {
      "inputs": [
        {
          "internalType": "contract IERC20",
          "name": "_token",
          "type": "address"
        }
      ],
      "name": "withdrawTokens",
      "outputs": [],
      "stateMutability": "nonpayable",
      "type": "function"
    },
    {
      "inputs": [
        {
          "internalType": "bytes32",
          "name": "root",
          "type": "bytes32"
        }
      ],
      "name": "setWhiteListRoot",
      "outputs": [],
      "stateMutability": "nonpayable",
      "type": "function"
    },
    {
      "inputs": [
        {
          "internalType": "address",
          "name": "addr",
          "type": "address"
        },
        {
          "internalType": "bytes32[]",
          "name": "_merkleProof",
          "type": "bytes32[]"
        }
      ],
      "name": "isQualifiedForParticipation",
      "outputs": [
        {
          "internalType": "bool",
          "name": "",
          "type": "bool"
        }
      ],
      "stateMutability": "view",
      "type": "function",
      "constant": true
    },
    {
      "inputs": [],
      "name": "claimTokens",
      "outputs": [],
      "stateMutability": "nonpayable",
      "type": "function"
    }
  ],
  "bytecode": "0x60a06040523480156200001157600080fd5b506040516200245d3803806200245d833981810160405281019062000037919062000227565b620000576200004b620000a260201b60201c565b620000aa60201b60201c565b8273ffffffffffffffffffffffffffffffffffffffff1660808173ffffffffffffffffffffffffffffffffffffffff1681525050816003819055508060018190555050505062000283565b600033905090565b60008060009054906101000a900473ffffffffffffffffffffffffffffffffffffffff169050816000806101000a81548173ffffffffffffffffffffffffffffffffffffffff021916908373ffffffffffffffffffffffffffffffffffffffff1602179055508173ffffffffffffffffffffffffffffffffffffffff168173ffffffffffffffffffffffffffffffffffffffff167f8be0079c531659141344cd1fd0a4f28419497f9722a3daafe3b4186f6b6457e060405160405180910390a35050565b600080fd5b600073ffffffffffffffffffffffffffffffffffffffff82169050919050565b6000620001a08262000173565b9050919050565b6000620001b48262000193565b9050919050565b620001c681620001a7565b8114620001d257600080fd5b50565b600081519050620001e681620001bb565b92915050565b6000819050919050565b6200020181620001ec565b81146200020d57600080fd5b50565b6000815190506200022181620001f6565b92915050565b6000806000606084860312156200024357620002426200016e565b5b60006200025386828701620001d5565b9350506020620002668682870162000210565b9250506040620002798682870162000210565b9150509250925092565b6080516121b7620002a6600039600081816105c901526107d201526121b76000f3fe60806040526004361061012a5760003560e01c80636d60e6c1116100ab578063a5fa12f01161006f578063a5fa12f014610373578063f14210a61461039c578063f2fde38b146103c5578063f30e5b26146103ee578063f952fcad14610419578063fc954144146104445761012a565b80636d60e6c1146102d3578063715018a6146102ea5780637b9d7d74146103015780638da5cb5b1461031d578063911df5c0146103485761012a565b806348c54b9d116100f257806348c54b9d1461020057806349df728c146102175780635141677a146102405780635656fc781461027d57806365f4fd12146102a85761012a565b806313fb0fda1461012f57806314a83a3a1461014657806336e708a31461018357806337da7794146101ac57806345149bb3146101d7575b600080fd5b34801561013b57600080fd5b50610144610481565b005b34801561015257600080fd5b5061016d600480360381019061016891906114f4565b610529565b60405161017a919061153a565b60405180910390f35b34801561018f57600080fd5b506101aa60048036038101906101a59190611581565b610541565b005b3480156101b857600080fd5b506101c16105c7565b6040516101ce919061160d565b60405180910390f35b3480156101e357600080fd5b506101fe60048036038101906101f9919061165e565b6105eb565b005b34801561020c57600080fd5b50610215610671565b005b34801561022357600080fd5b5061023e600480360381019061023991906116c9565b610850565b005b34801561024c57600080fd5b506102676004803603810190610262919061175b565b610973565b60405161027491906117d6565b60405180910390f35b34801561028957600080fd5b506102926109f7565b60405161029f91906117d6565b60405180910390f35b3480156102b457600080fd5b506102bd610a0a565b6040516102ca9190611800565b60405180910390f35b3480156102df57600080fd5b506102e8610a10565b005b3480156102f657600080fd5b506102ff610ab8565b005b61031b6004803603810190610316919061181b565b610b40565b005b34801561032957600080fd5b50610332610d77565b60405161033f9190611877565b60405180910390f35b34801561035457600080fd5b5061035d610da0565b60405161036a919061153a565b60405180910390f35b34801561037f57600080fd5b5061039a60048036038101906103959190611581565b610da6565b005b3480156103a857600080fd5b506103c360048036038101906103be9190611581565b610e2c565b005b3480156103d157600080fd5b506103ec60048036038101906103e791906114f4565b610ef2565b005b3480156103fa57600080fd5b50610403610fe9565b60405161041091906117d6565b60405180910390f35b34801561042557600080fd5b5061042e610ffc565b60405161043b919061153a565b60405180910390f35b34801561045057600080fd5b5061046b600480360381019061046691906114f4565b611002565b604051610478919061153a565b60405180910390f35b61048961101a565b73ffffffffffffffffffffffffffffffffffffffff166104a7610d77565b73ffffffffffffffffffffffffffffffffffffffff16146104fd576040517f08c379a00000000000000000000000000000000000000000000000000000000081526004016104f4906118ef565b60405180910390fd5b600060149054906101000a900460ff1615600060146101000a81548160ff021916908315150217905550565b60056020528060005260406000206000915090505481565b61054961101a565b73ffffffffffffffffffffffffffffffffffffffff16610567610d77565b73ffffffffffffffffffffffffffffffffffffffff16146105bd576040517f08c379a00000000000000000000000000000000000000000000000000000000081526004016105b4906118ef565b60405180910390fd5b8060038190555050565b7f000000000000000000000000000000000000000000000000000000000000000081565b6105f361101a565b73ffffffffffffffffffffffffffffffffffffffff16610611610d77565b73ffffffffffffffffffffffffffffffffffffffff1614610667576040517f08c379a000000000000000000000000000000000000000000000000000000000815260040161065e906118ef565b60405180910390fd5b8060028190555050565b600060159054906101000a900460ff166106c0576040517f08c379a00000000000000000000000000000000000000000000000000000000081526004016106b79061195b565b60405180910390fd5b6000600560003373ffffffffffffffffffffffffffffffffffffffff1673ffffffffffffffffffffffffffffffffffffffff1681526020019081526020016000205411610742576040517f08c379a0000000000000000000000000000000000000000000000000000000008152600401610739906119c7565b60405180910390fd5b6000600560003373ffffffffffffffffffffffffffffffffffffffff1673ffffffffffffffffffffffffffffffffffffffff1681526020019081526020016000205490506000600560003373ffffffffffffffffffffffffffffffffffffffff1673ffffffffffffffffffffffffffffffffffffffff1681526020019081526020016000208190555061081633827f000000000000000000000000000000000000000000000000000000000000000073ffffffffffffffffffffffffffffffffffffffff166110229092919063ffffffff16565b7f263e0dfdd750b7cdf94925d6da0723982189e1bd0bf732230effe80a743b559881604051610845919061153a565b60405180910390a150565b61085861101a565b73ffffffffffffffffffffffffffffffffffffffff16610876610d77565b73ffffffffffffffffffffffffffffffffffffffff16146108cc576040517f08c379a00000000000000000000000000000000000000000000000000000000081526004016108c3906118ef565b60405180910390fd5b610970338273ffffffffffffffffffffffffffffffffffffffff166370a08231306040518263ffffffff1660e01b81526004016109099190611877565b602060405180830381865afa158015610926573d6000803e3d6000fd5b505050506040513d601f19601f8201168201806040525081019061094a91906119fc565b8373ffffffffffffffffffffffffffffffffffffffff166110229092919063ffffffff16565b50565b600080846040516020016109879190611a71565b6040516020818303038152906040528051906020012090506109ed848480806020026020016040519081016040528093929190818152602001838360200280828437600081840152601f19601f82011690508083019250505050505050600254836110a8565b9150509392505050565b600060149054906101000a900460ff1681565b60025481565b610a1861101a565b73ffffffffffffffffffffffffffffffffffffffff16610a36610d77565b73ffffffffffffffffffffffffffffffffffffffff1614610a8c576040517f08c379a0000000000000000000000000000000000000000000000000000000008152600401610a83906118ef565b60405180910390fd5b600060159054906101000a900460ff1615600060156101000a81548160ff021916908315150217905550565b610ac061101a565b73ffffffffffffffffffffffffffffffffffffffff16610ade610d77565b73ffffffffffffffffffffffffffffffffffffffff1614610b34576040517f08c379a0000000000000000000000000000000000000000000000000000000008152600401610b2b906118ef565b60405180910390fd5b610b3e60006110bf565b565b600060149054906101000a900460ff16610b8f576040517f08c379a0000000000000000000000000000000000000000000000000000000008152600401610b8690611ad8565b60405180910390fd5b610b9a338383610973565b610bd9576040517f08c379a0000000000000000000000000000000000000000000000000000000008152600401610bd090611b44565b60405180910390fd5b6000600354670de0b6b3a764000034610bf29190611b93565b610bfc9190611c1c565b905060015481600560003373ffffffffffffffffffffffffffffffffffffffff1673ffffffffffffffffffffffffffffffffffffffff16815260200190815260200160002054610c4c9190611c4d565b1115610c8d576040517f08c379a0000000000000000000000000000000000000000000000000000000008152600401610c8490611d15565b60405180910390fd5b34600460003373ffffffffffffffffffffffffffffffffffffffff1673ffffffffffffffffffffffffffffffffffffffff1681526020019081526020016000206000828254610cdc9190611c4d565b9250508190555080600560003373ffffffffffffffffffffffffffffffffffffffff1673ffffffffffffffffffffffffffffffffffffffff1681526020019081526020016000206000828254610d329190611c4d565b925050819055507f03004b47798578d709cd358a27086113131b126e531e1f93fc66ab3000f0e52a3482604051610d6a929190611d35565b60405180910390a1505050565b60008060009054906101000a900473ffffffffffffffffffffffffffffffffffffffff16905090565b60035481565b610dae61101a565b73ffffffffffffffffffffffffffffffffffffffff16610dcc610d77565b73ffffffffffffffffffffffffffffffffffffffff1614610e22576040517f08c379a0000000000000000000000000000000000000000000000000000000008152600401610e19906118ef565b60405180910390fd5b8060018190555050565b610e3461101a565b73ffffffffffffffffffffffffffffffffffffffff16610e52610d77565b73ffffffffffffffffffffffffffffffffffffffff1614610ea8576040517f08c379a0000000000000000000000000000000000000000000000000000000008152600401610e9f906118ef565b60405180910390fd5b3373ffffffffffffffffffffffffffffffffffffffff166108fc829081150290604051600060405180830381858888f19350505050158015610eee573d6000803e3d6000fd5b5050565b610efa61101a565b73ffffffffffffffffffffffffffffffffffffffff16610f18610d77565b73ffffffffffffffffffffffffffffffffffffffff1614610f6e576040517f08c379a0000000000000000000000000000000000000000000000000000000008152600401610f65906118ef565b60405180910390fd5b600073ffffffffffffffffffffffffffffffffffffffff168173ffffffffffffffffffffffffffffffffffffffff1603610fdd576040517f08c379a0000000000000000000000000000000000000000000000000000000008152600401610fd490611dd0565b60405180910390fd5b610fe6816110bf565b50565b600060159054906101000a900460ff1681565b60015481565b60046020528060005260406000206000915090505481565b600033905090565b6110a38363a9059cbb60e01b8484604051602401611041929190611df0565b604051602081830303815290604052907bffffffffffffffffffffffffffffffffffffffffffffffffffffffff19166020820180517bffffffffffffffffffffffffffffffffffffffffffffffffffffffff8381831617835250505050611183565b505050565b6000826110b5858461124a565b1490509392505050565b60008060009054906101000a900473ffffffffffffffffffffffffffffffffffffffff169050816000806101000a81548173ffffffffffffffffffffffffffffffffffffffff021916908373ffffffffffffffffffffffffffffffffffffffff1602179055508173ffffffffffffffffffffffffffffffffffffffff168173ffffffffffffffffffffffffffffffffffffffff167f8be0079c531659141344cd1fd0a4f28419497f9722a3daafe3b4186f6b6457e060405160405180910390a35050565b60006111e5826040518060400160405280602081526020017f5361666545524332303a206c6f772d6c6576656c2063616c6c206661696c65648152508573ffffffffffffffffffffffffffffffffffffffff166112bf9092919063ffffffff16565b905060008151111561124557808060200190518101906112059190611e45565b611244576040517f08c379a000000000000000000000000000000000000000000000000000000000815260040161123b90611ee4565b60405180910390fd5b5b505050565b60008082905060005b84518110156112b457600085828151811061127157611270611f04565b5b602002602001015190508083116112935761128c83826112d7565b92506112a0565b61129d81846112d7565b92505b5080806112ac90611f33565b915050611253565b508091505092915050565b60606112ce84846000856112ee565b90509392505050565b600082600052816020526040600020905092915050565b606082471015611333576040517f08c379a000000000000000000000000000000000000000000000000000000000815260040161132a90611fed565b60405180910390fd5b61133c85611402565b61137b576040517f08c379a000000000000000000000000000000000000000000000000000000000815260040161137290612059565b60405180910390fd5b6000808673ffffffffffffffffffffffffffffffffffffffff1685876040516113a491906120f3565b60006040518083038185875af1925050503d80600081146113e1576040519150601f19603f3d011682016040523d82523d6000602084013e6113e6565b606091505b50915091506113f6828286611425565b92505050949350505050565b6000808273ffffffffffffffffffffffffffffffffffffffff163b119050919050565b6060831561143557829050611485565b6000835111156114485782518084602001fd5b816040517f08c379a000000000000000000000000000000000000000000000000000000000815260040161147c919061215f565b60405180910390fd5b9392505050565b600080fd5b600080fd5b600073ffffffffffffffffffffffffffffffffffffffff82169050919050565b60006114c182611496565b9050919050565b6114d1816114b6565b81146114dc57600080fd5b50565b6000813590506114ee816114c8565b92915050565b60006020828403121561150a5761150961148c565b5b6000611518848285016114df565b91505092915050565b6000819050919050565b61153481611521565b82525050565b600060208201905061154f600083018461152b565b92915050565b61155e81611521565b811461156957600080fd5b50565b60008135905061157b81611555565b92915050565b6000602082840312156115975761159661148c565b5b60006115a58482850161156c565b91505092915050565b6000819050919050565b60006115d36115ce6115c984611496565b6115ae565b611496565b9050919050565b60006115e5826115b8565b9050919050565b60006115f7826115da565b9050919050565b611607816115ec565b82525050565b600060208201905061162260008301846115fe565b92915050565b6000819050919050565b61163b81611628565b811461164657600080fd5b50565b60008135905061165881611632565b92915050565b6000602082840312156116745761167361148c565b5b600061168284828501611649565b91505092915050565b6000611696826114b6565b9050919050565b6116a68161168b565b81146116b157600080fd5b50565b6000813590506116c38161169d565b92915050565b6000602082840312156116df576116de61148c565b5b60006116ed848285016116b4565b91505092915050565b600080fd5b600080fd5b600080fd5b60008083601f84011261171b5761171a6116f6565b5b8235905067ffffffffffffffff811115611738576117376116fb565b5b60208301915083602082028301111561175457611753611700565b5b9250929050565b6000806000604084860312156117745761177361148c565b5b6000611782868287016114df565b935050602084013567ffffffffffffffff8111156117a3576117a2611491565b5b6117af86828701611705565b92509250509250925092565b60008115159050919050565b6117d0816117bb565b82525050565b60006020820190506117eb60008301846117c7565b92915050565b6117fa81611628565b82525050565b600060208201905061181560008301846117f1565b92915050565b600080602083850312156118325761183161148c565b5b600083013567ffffffffffffffff8111156118505761184f611491565b5b61185c85828601611705565b92509250509250929050565b611871816114b6565b82525050565b600060208201905061188c6000830184611868565b92915050565b600082825260208201905092915050565b7f4f776e61626c653a2063616c6c6572206973206e6f7420746865206f776e6572600082015250565b60006118d9602083611892565b91506118e4826118a3565b602082019050919050565b60006020820190508181036000830152611908816118cc565b9050919050565b7f436c61696d206e6f7420656e61626c6564000000000000000000000000000000600082015250565b6000611945601183611892565b91506119508261190f565b602082019050919050565b6000602082019050818103600083015261197481611938565b9050919050565b7f416c726561647920436c61696d65640000000000000000000000000000000000600082015250565b60006119b1600f83611892565b91506119bc8261197b565b602082019050919050565b600060208201905081810360008301526119e0816119a4565b9050919050565b6000815190506119f681611555565b92915050565b600060208284031215611a1257611a1161148c565b5b6000611a20848285016119e7565b91505092915050565b60008160601b9050919050565b6000611a4182611a29565b9050919050565b6000611a5382611a36565b9050919050565b611a6b611a66826114b6565b611a48565b82525050565b6000611a7d8284611a5a565b60148201915081905092915050565b7f4465706f736974206e6f7420656e61626c656400000000000000000000000000600082015250565b6000611ac2601383611892565b9150611acd82611a8c565b602082019050919050565b60006020820190508181036000830152611af181611ab5565b9050919050565b7f596f7520617265206e6f742077686974656c6973746564000000000000000000600082015250565b6000611b2e601783611892565b9150611b3982611af8565b602082019050919050565b60006020820190508181036000830152611b5d81611b21565b9050919050565b7f4e487b7100000000000000000000000000000000000000000000000000000000600052601160045260246000fd5b6000611b9e82611521565b9150611ba983611521565b9250817fffffffffffffffffffffffffffffffffffffffffffffffffffffffffffffffff0483118215151615611be257611be1611b64565b5b828202905092915050565b7f4e487b7100000000000000000000000000000000000000000000000000000000600052601260045260246000fd5b6000611c2782611521565b9150611c3283611521565b925082611c4257611c41611bed565b5b828204905092915050565b6000611c5882611521565b9150611c6383611521565b9250827fffffffffffffffffffffffffffffffffffffffffffffffffffffffffffffffff03821115611c9857611c97611b64565b5b828201905092915050565b7f43616e277420627579206d6f7265207468616e206d617820707572636861736560008201527f206c696d697420616d6f756e7400000000000000000000000000000000000000602082015250565b6000611cff602d83611892565b9150611d0a82611ca3565b604082019050919050565b60006020820190508181036000830152611d2e81611cf2565b9050919050565b6000604082019050611d4a600083018561152b565b611d57602083018461152b565b9392505050565b7f4f776e61626c653a206e6577206f776e657220697320746865207a65726f206160008201527f6464726573730000000000000000000000000000000000000000000000000000602082015250565b6000611dba602683611892565b9150611dc582611d5e565b604082019050919050565b60006020820190508181036000830152611de981611dad565b9050919050565b6000604082019050611e056000830185611868565b611e12602083018461152b565b9392505050565b611e22816117bb565b8114611e2d57600080fd5b50565b600081519050611e3f81611e19565b92915050565b600060208284031215611e5b57611e5a61148c565b5b6000611e6984828501611e30565b91505092915050565b7f5361666545524332303a204552433230206f7065726174696f6e20646964206e60008201527f6f74207375636365656400000000000000000000000000000000000000000000602082015250565b6000611ece602a83611892565b9150611ed982611e72565b604082019050919050565b60006020820190508181036000830152611efd81611ec1565b9050919050565b7f4e487b7100000000000000000000000000000000000000000000000000000000600052603260045260246000fd5b6000611f3e82611521565b91507fffffffffffffffffffffffffffffffffffffffffffffffffffffffffffffffff8203611f7057611f6f611b64565b5b600182019050919050565b7f416464726573733a20696e73756666696369656e742062616c616e636520666f60008201527f722063616c6c0000000000000000000000000000000000000000000000000000602082015250565b6000611fd7602683611892565b9150611fe282611f7b565b604082019050919050565b6000602082019050818103600083015261200681611fca565b9050919050565b7f416464726573733a2063616c6c20746f206e6f6e2d636f6e7472616374000000600082015250565b6000612043601d83611892565b915061204e8261200d565b602082019050919050565b6000602082019050818103600083015261207281612036565b9050919050565b600081519050919050565b600081905092915050565b60005b838110156120ad578082015181840152602081019050612092565b838111156120bc576000848401525b50505050565b60006120cd82612079565b6120d78185612084565b93506120e781856020860161208f565b80840191505092915050565b60006120ff82846120c2565b915081905092915050565b600081519050919050565b6000601f19601f8301169050919050565b60006121318261210a565b61213b8185611892565b935061214b81856020860161208f565b61215481612115565b840191505092915050565b600060208201905081810360008301526121798184612126565b90509291505056fea2646970667358221220926decdcb2d042f11d18874c562c0fa8ea51f373a3b0b68433c8eafd63ed365164736f6c634300080d0033",
  "immutableReferences": {
    "1680": [
      {
        "length": 32,
        "start": 1481
      },
      {
        "length": 32,
        "start": 2002
      }
    ]
  },
  "source": "// SPDX-License-Identifier: MIT\npragma solidity ^0.8.0;\n\nimport \"@openzeppelin/contracts/access/Ownable.sol\";\nimport \"@openzeppelin/contracts/utils/cryptography/MerkleProof.sol\";\nimport \"@openzeppelin/contracts/token/ERC20/IERC20.sol\";\nimport \"@openzeppelin/contracts/token/ERC20/utils/SafeERC20.sol\";\n\ncontract ChimpPublicSale is Ownable {\n    using SafeERC20 for IERC20;\n\n    bool public isDepositEnabled;\n    bool public isClaimEnabled;\n\n    uint256 public maxPurchaseAmount;\n    bytes32 public whiteListRoot;\n\n    uint256 public chimpPrice;\n    IERC20 public immutable CHIMP_TOKEN;\n\n    mapping(address => uint256) public participations;\n\n    mapping(address => uint256) public tokensToBeClaimed;\n\n    event onDeposit(uint256 ethAmount, uint256 chimpAmount);\n    event onClaimed(uint256 amount);\n\n    constructor(IERC20 _CHIMP_TOKEN,uint256 price,uint256 _maxPurchaseLimit) {\n        CHIMP_TOKEN = _CHIMP_TOKEN;\n        chimpPrice = price;\n        maxPurchaseAmount = _maxPurchaseLimit;\n        \n    }\n\n    function flipDepositState() public onlyOwner {\n        isDepositEnabled = !isDepositEnabled;\n    }\n\n    function flipClaimState() public onlyOwner {\n        isClaimEnabled = !isClaimEnabled;\n    }\n\n    function setMaxPurchaseAmount(uint256 amount) public onlyOwner {\n        maxPurchaseAmount = amount;\n    }\n\n    function setChimpPrice(uint256 amount) public onlyOwner {\n        chimpPrice = amount;\n    }\n\n    function deposit(bytes32[] calldata _merkleProof) public payable {\n        require(isDepositEnabled, \"Deposit not enabled\");\n\n        require(\n            isQualifiedForParticipation(msg.sender, _merkleProof),\n            \"You are not whitelisted\"\n        );\n\n        uint256 chimpAmount = (msg.value * 1e18) / chimpPrice;\n\n        require(\n            tokensToBeClaimed[msg.sender] + chimpAmount <= maxPurchaseAmount,\n            \"Can't buy more than max purchase limit amount\"\n        );\n\n        participations[msg.sender] += msg.value;\n        tokensToBeClaimed[msg.sender] += chimpAmount;\n        emit onDeposit(msg.value, chimpAmount);\n    }\n\n    function withdrawETH(uint256 amount) public onlyOwner {\n        payable(msg.sender).transfer(amount);\n    }\n\n    function withdrawTokens(IERC20 _token) public onlyOwner {\n        _token.safeTransfer(msg.sender, _token.balanceOf(address(this)));\n    }\n\n    function setWhiteListRoot(bytes32 root) public onlyOwner {\n        whiteListRoot = root;\n    }\n\n    function isQualifiedForParticipation(\n        address addr,\n        bytes32[] calldata _merkleProof\n    ) public view returns (bool) {\n        bytes32 leaf = keccak256(abi.encodePacked(addr));\n        return MerkleProof.verify(_merkleProof, whiteListRoot, leaf);\n    }\n\n    function claimTokens() public {\n        require(isClaimEnabled, \"Claim not enabled\");\n        require(tokensToBeClaimed[msg.sender] > 0, \"Already Claimed\");\n\n        uint256 totalChimpsToBeClaimed = tokensToBeClaimed[msg.sender];\n        tokensToBeClaimed[msg.sender] = 0;\n        CHIMP_TOKEN.safeTransfer(msg.sender, totalChimpsToBeClaimed);\n\n        emit onClaimed(totalChimpsToBeClaimed);\n    }\n}\n",
  "sourcePath": "/Users/shahzeb/Desktop/projects/clients/leon/chimpdao/contracts/contracts/PublicSale/ChimpPublicSale.sol",
  "compiler": {
    "name": "solc",
    "version": "0.8.13+commit.abaa5c0e.Emscripten.clang"
  },
  "schemaVersion": "3.4.6",
  "updatedAt": "2022-08-20T20:47:50.423Z",
  "networkType": "ethereum",
  "devdoc": {
    "kind": "dev",
    "methods": {
      "owner()": {
        "details": "Returns the address of the current owner."
      },
      "renounceOwnership()": {
        "details": "Leaves the contract without owner. It will not be possible to call `onlyOwner` functions anymore. Can only be called by the current owner. NOTE: Renouncing ownership will leave the contract without an owner, thereby removing any functionality that is only available to the owner."
      },
      "transferOwnership(address)": {
        "details": "Transfers ownership of the contract to a new account (`newOwner`). Can only be called by the current owner."
      }
    },
    "version": 1
  },
  "userdoc": {
    "kind": "user",
    "methods": {},
    "version": 1
  }
}