{
  "contractName": "CHIMPMasterChef",
  "abi": [
    {
      "inputs": [
        {
          "internalType": "contract IERC20",
          "name": "_chimp",
          "type": "address"
        },
        {
          "internalType": "address",
          "name": "_feeAddress",
          "type": "address"
        },
        {
          "internalType": "uint256",
          "name": "_chimpPerBlock",
          "type": "uint256"
        },
        {
          "internalType": "contract CHIMPStakingReserve",
          "name": "_CHIMPStakingReserve",
          "type": "address"
        },
        {
          "internalType": "uint256",
          "name": "_startBlock",
          "type": "uint256"
        }
      ],
      "stateMutability": "nonpayable",
      "type": "constructor"
    },
    {
      "anonymous": false,
      "inputs": [
        {
          "indexed": true,
          "internalType": "address",
          "name": "user",
          "type": "address"
        },
        {
          "indexed": true,
          "internalType": "uint256",
          "name": "pid",
          "type": "uint256"
        },
        {
          "indexed": false,
          "internalType": "uint256",
          "name": "amount",
          "type": "uint256"
        }
      ],
      "name": "Deposit",
      "type": "event"
    },
    {
      "anonymous": false,
      "inputs": [
        {
          "indexed": true,
          "internalType": "address",
          "name": "user",
          "type": "address"
        },
        {
          "indexed": true,
          "internalType": "uint256",
          "name": "pid",
          "type": "uint256"
        },
        {
          "indexed": false,
          "internalType": "uint256",
          "name": "amount",
          "type": "uint256"
        }
      ],
      "name": "EmergencyWithdraw",
      "type": "event"
    },
    {
      "anonymous": false,
      "inputs": [
        {
          "indexed": true,
          "internalType": "address",
          "name": "previousOwner",
          "type": "address"
        },
        {
          "indexed": true,
          "internalType": "address",
          "name": "newOwner",
          "type": "address"
        }
      ],
      "name": "OwnershipTransferred",
      "type": "event"
    },
    {
      "anonymous": false,
      "inputs": [
        {
          "indexed": true,
          "internalType": "address",
          "name": "user",
          "type": "address"
        },
        {
          "indexed": true,
          "internalType": "uint256",
          "name": "pid",
          "type": "uint256"
        },
        {
          "indexed": false,
          "internalType": "uint256",
          "name": "amount",
          "type": "uint256"
        }
      ],
      "name": "Withdraw",
      "type": "event"
    },
    {
      "inputs": [],
      "name": "BONUS_MULTIPLIER",
      "outputs": [
        {
          "internalType": "uint256",
          "name": "",
          "type": "uint256"
        }
      ],
      "stateMutability": "view",
      "type": "function",
      "constant": true
    },
    {
      "inputs": [],
      "name": "chimp",
      "outputs": [
        {
          "internalType": "contract IERC20",
          "name": "",
          "type": "address"
        }
      ],
      "stateMutability": "view",
      "type": "function",
      "constant": true
    },
    {
      "inputs": [],
      "name": "chimpPerBlock",
      "outputs": [
        {
          "internalType": "uint256",
          "name": "",
          "type": "uint256"
        }
      ],
      "stateMutability": "view",
      "type": "function",
      "constant": true
    },
    {
      "inputs": [],
      "name": "chimpStakingReserve",
      "outputs": [
        {
          "internalType": "contract CHIMPStakingReserve",
          "name": "",
          "type": "address"
        }
      ],
      "stateMutability": "view",
      "type": "function",
      "constant": true
    },
    {
      "inputs": [],
      "name": "feeAddress",
      "outputs": [
        {
          "internalType": "address",
          "name": "",
          "type": "address"
        }
      ],
      "stateMutability": "view",
      "type": "function",
      "constant": true
    },
    {
      "inputs": [],
      "name": "owner",
      "outputs": [
        {
          "internalType": "address",
          "name": "",
          "type": "address"
        }
      ],
      "stateMutability": "view",
      "type": "function",
      "constant": true
    },
    {
      "inputs": [
        {
          "internalType": "uint256",
          "name": "",
          "type": "uint256"
        }
      ],
      "name": "poolInfo",
      "outputs": [
        {
          "internalType": "contract IERC20",
          "name": "lpToken",
          "type": "address"
        },
        {
          "internalType": "uint256",
          "name": "allocPoint",
          "type": "uint256"
        },
        {
          "internalType": "uint256",
          "name": "lastRewardBlock",
          "type": "uint256"
        },
        {
          "internalType": "uint256",
          "name": "accCHIMPPerShare",
          "type": "uint256"
        },
        {
          "internalType": "uint16",
          "name": "depositFeeBP",
          "type": "uint16"
        },
        {
          "internalType": "uint256",
          "name": "tvl",
          "type": "uint256"
        }
      ],
      "stateMutability": "view",
      "type": "function",
      "constant": true
    },
    {
      "inputs": [],
      "name": "renounceOwnership",
      "outputs": [],
      "stateMutability": "nonpayable",
      "type": "function"
    },
    {
      "inputs": [],
      "name": "startBlock",
      "outputs": [
        {
          "internalType": "uint256",
          "name": "",
          "type": "uint256"
        }
      ],
      "stateMutability": "view",
      "type": "function",
      "constant": true
    },
    {
      "inputs": [],
      "name": "totalAllocPoint",
      "outputs": [
        {
          "internalType": "uint256",
          "name": "",
          "type": "uint256"
        }
      ],
      "stateMutability": "view",
      "type": "function",
      "constant": true
    },
    {
      "inputs": [],
      "name": "totalRewardPaid",
      "outputs": [
        {
          "internalType": "uint256",
          "name": "",
          "type": "uint256"
        }
      ],
      "stateMutability": "view",
      "type": "function",
      "constant": true
    },
    {
      "inputs": [
        {
          "internalType": "address",
          "name": "newOwner",
          "type": "address"
        }
      ],
      "name": "transferOwnership",
      "outputs": [],
      "stateMutability": "nonpayable",
      "type": "function"
    },
    {
      "inputs": [
        {
          "internalType": "uint256",
          "name": "",
          "type": "uint256"
        },
        {
          "internalType": "address",
          "name": "",
          "type": "address"
        }
      ],
      "name": "userInfo",
      "outputs": [
        {
          "internalType": "uint256",
          "name": "amount",
          "type": "uint256"
        },
        {
          "internalType": "uint256",
          "name": "rewardDebt",
          "type": "uint256"
        }
      ],
      "stateMutability": "view",
      "type": "function",
      "constant": true
    },
    {
      "inputs": [],
      "name": "poolLength",
      "outputs": [
        {
          "internalType": "uint256",
          "name": "",
          "type": "uint256"
        }
      ],
      "stateMutability": "view",
      "type": "function",
      "constant": true
    },
    {
      "inputs": [
        {
          "internalType": "uint256",
          "name": "_allocPoint",
          "type": "uint256"
        },
        {
          "internalType": "contract IERC20",
          "name": "_lpToken",
          "type": "address"
        },
        {
          "internalType": "uint16",
          "name": "_depositFeeBP",
          "type": "uint16"
        },
        {
          "internalType": "bool",
          "name": "_withUpdate",
          "type": "bool"
        }
      ],
      "name": "add",
      "outputs": [],
      "stateMutability": "nonpayable",
      "type": "function"
    },
    {
      "inputs": [
        {
          "internalType": "uint256",
          "name": "_pid",
          "type": "uint256"
        },
        {
          "internalType": "uint256",
          "name": "_allocPoint",
          "type": "uint256"
        },
        {
          "internalType": "uint16",
          "name": "_depositFeeBP",
          "type": "uint16"
        },
        {
          "internalType": "bool",
          "name": "_withUpdate",
          "type": "bool"
        }
      ],
      "name": "set",
      "outputs": [],
      "stateMutability": "nonpayable",
      "type": "function"
    },
    {
      "inputs": [
        {
          "internalType": "uint256",
          "name": "_from",
          "type": "uint256"
        },
        {
          "internalType": "uint256",
          "name": "_to",
          "type": "uint256"
        }
      ],
      "name": "getMultiplier",
      "outputs": [
        {
          "internalType": "uint256",
          "name": "",
          "type": "uint256"
        }
      ],
      "stateMutability": "pure",
      "type": "function",
      "constant": true
    },
    {
      "inputs": [
        {
          "internalType": "uint256",
          "name": "_pid",
          "type": "uint256"
        },
        {
          "internalType": "address",
          "name": "_user",
          "type": "address"
        }
      ],
      "name": "pendingCHIMP",
      "outputs": [
        {
          "internalType": "uint256",
          "name": "",
          "type": "uint256"
        }
      ],
      "stateMutability": "view",
      "type": "function",
      "constant": true
    },
    {
      "inputs": [],
      "name": "massUpdatePools",
      "outputs": [],
      "stateMutability": "nonpayable",
      "type": "function"
    },
    {
      "inputs": [
        {
          "internalType": "uint256",
          "name": "_pid",
          "type": "uint256"
        }
      ],
      "name": "updatePool",
      "outputs": [],
      "stateMutability": "nonpayable",
      "type": "function"
    },
    {
      "inputs": [
        {
          "internalType": "uint256",
          "name": "_pid",
          "type": "uint256"
        },
        {
          "internalType": "uint256",
          "name": "_amount",
          "type": "uint256"
        }
      ],
      "name": "deposit",
      "outputs": [],
      "stateMutability": "nonpayable",
      "type": "function"
    },
    {
      "inputs": [
        {
          "internalType": "uint256",
          "name": "_pid",
          "type": "uint256"
        },
        {
          "internalType": "uint256",
          "name": "_amount",
          "type": "uint256"
        }
      ],
      "name": "withdraw",
      "outputs": [],
      "stateMutability": "nonpayable",
      "type": "function"
    },
    {
      "inputs": [
        {
          "internalType": "uint256",
          "name": "_pid",
          "type": "uint256"
        }
      ],
      "name": "emergencyWithdraw",
      "outputs": [],
      "stateMutability": "nonpayable",
      "type": "function"
    },
    {
      "inputs": [
        {
          "internalType": "address",
          "name": "_feeAddress",
          "type": "address"
        }
      ],
      "name": "setFeeAddress",
      "outputs": [],
      "stateMutability": "nonpayable",
      "type": "function"
    },
    {
      "inputs": [
        {
          "internalType": "uint256",
          "name": "_chimpPerBlock",
          "type": "uint256"
        }
      ],
      "name": "updateEmissionRate",
      "outputs": [],
      "stateMutability": "nonpayable",
      "type": "function"
    }
  ],
  "bytecode": "0x60806040526101f460055560006008553480156200001c57600080fd5b506040516200331938038062003319833981810160405281019062000042919062000305565b600062000054620001ce60201b60201c565b9050806000806101000a81548173ffffffffffffffffffffffffffffffffffffffff021916908373ffffffffffffffffffffffffffffffffffffffff1602179055508073ffffffffffffffffffffffffffffffffffffffff16600073ffffffffffffffffffffffffffffffffffffffff167f8be0079c531659141344cd1fd0a4f28419497f9722a3daafe3b4186f6b6457e060405160405180910390a35084600260006101000a81548173ffffffffffffffffffffffffffffffffffffffff021916908373ffffffffffffffffffffffffffffffffffffffff16021790555083600460006101000a81548173ffffffffffffffffffffffffffffffffffffffff021916908373ffffffffffffffffffffffffffffffffffffffff1602179055508260038190555081600a60006101000a81548173ffffffffffffffffffffffffffffffffffffffff021916908373ffffffffffffffffffffffffffffffffffffffff1602179055508060098190555050505050506200038d565b600033905090565b600080fd5b600073ffffffffffffffffffffffffffffffffffffffff82169050919050565b60006200020882620001db565b9050919050565b60006200021c82620001fb565b9050919050565b6200022e816200020f565b81146200023a57600080fd5b50565b6000815190506200024e8162000223565b92915050565b6200025f81620001fb565b81146200026b57600080fd5b50565b6000815190506200027f8162000254565b92915050565b6000819050919050565b6200029a8162000285565b8114620002a657600080fd5b50565b600081519050620002ba816200028f565b92915050565b6000620002cd82620001fb565b9050919050565b620002df81620002c0565b8114620002eb57600080fd5b50565b600081519050620002ff81620002d4565b92915050565b600080600080600060a08688031215620003245762000323620001d6565b5b600062000334888289016200023d565b955050602062000347888289016200026e565b94505060406200035a88828901620002a9565b93505060606200036d88828901620002ee565b92505060806200038088828901620002a9565b9150509295509295909350565b612f7c806200039d6000396000f3fe608060405234801561001057600080fd5b50600436106101735760003560e01c806362fcad7a116100de5780638da5cb5b11610097578063ba72f88b11610071578063ba72f88b14610408578063d963842214610426578063e2bbb15814610442578063f2fde38b1461045e57610173565b80638da5cb5b146103895780638dbb1e3a146103a757806393f1a40b146103d757610173565b806362fcad7a146102ef578063630b5ba11461031f578063715018a61461032957806384e82a33146103335780638705fcd41461034f5780638aa285501461036b57610173565b806341275358116101305780634127535814610241578063441a3e701461025f57806348cd4cb11461027b57806351eb05a6146102995780635312ea8e146102b55780635a632c28146102d157610173565b8063081e3eda146101785780630ba84cd2146101965780631526fe27146101b2578063176b960c146101e757806317caf6f114610205578063398f783514610223575b600080fd5b61018061047a565b60405161018d91906122a6565b60405180910390f35b6101b060048036038101906101ab91906122f2565b610487565b005b6101cc60048036038101906101c791906122f2565b61052e565b6040516101de969594939291906123bb565b60405180910390f35b6101ef6105a8565b6040516101fc919061243d565b60405180910390f35b61020d6105ce565b60405161021a91906122a6565b60405180910390f35b61022b6105d4565b6040516102389190612458565b60405180910390f35b6102496105fa565b6040516102569190612494565b60405180910390f35b610279600480360381019061027491906124af565b610620565b005b61028361086d565b60405161029091906122a6565b60405180910390f35b6102b360048036038101906102ae91906122f2565b610873565b005b6102cf60048036038101906102ca91906122f2565b610993565b005b6102d9610ae9565b6040516102e691906122a6565b60405180910390f35b6103096004803603810190610304919061251b565b610aef565b60405161031691906122a6565b60405180910390f35b610327610d14565b005b610331610d47565b005b61034d600480360381019061034891906125fd565b610e9a565b005b61036960048036038101906103649190612664565b6110c8565b005b61037361119c565b60405161038091906122a6565b60405180910390f35b6103916111a1565b60405161039e9190612494565b60405180910390f35b6103c160048036038101906103bc91906124af565b6111ca565b6040516103ce91906122a6565b60405180910390f35b6103f160048036038101906103ec919061251b565b6111fa565b6040516103ff929190612691565b60405180910390f35b61041061122b565b60405161041d91906122a6565b60405180910390f35b610440600480360381019061043b91906126ba565b611231565b005b61045c600480360381019061045791906124af565b6113e0565b005b61047860048036038101906104739190612664565b611887565b005b6000600680549050905090565b61048f611928565b73ffffffffffffffffffffffffffffffffffffffff1660008054906101000a900473ffffffffffffffffffffffffffffffffffffffff1673ffffffffffffffffffffffffffffffffffffffff161461051c576040517f08c379a00000000000000000000000000000000000000000000000000000000081526004016105139061277e565b60405180910390fd5b610524610d14565b8060038190555050565b6006818154811061053e57600080fd5b90600052602060002090600602016000915090508060000160009054906101000a900473ffffffffffffffffffffffffffffffffffffffff16908060010154908060020154908060030154908060040160009054906101000a900461ffff16908060050154905086565b600a60009054906101000a900473ffffffffffffffffffffffffffffffffffffffff1681565b60085481565b600260009054906101000a900473ffffffffffffffffffffffffffffffffffffffff1681565b600460009054906101000a900473ffffffffffffffffffffffffffffffffffffffff1681565b6000600683815481106106365761063561279e565b5b9060005260206000209060060201905060006007600085815260200190815260200160002060003373ffffffffffffffffffffffffffffffffffffffff1673ffffffffffffffffffffffffffffffffffffffff168152602001908152602001600020905082816000015410156106e1576040517f08c379a00000000000000000000000000000000000000000000000000000000081526004016106d890612819565b60405180910390fd5b6106ea84610873565b6000610734826001015461072664e8d4a510006107188760030154876000015461193090919063ffffffff16565b6119aa90919063ffffffff16565b6119f490919063ffffffff16565b9050600081111561074a576107493382611a3e565b5b60008411156107dd5761076a8483600001546119f490919063ffffffff16565b8260000181905550838360050160008282546107869190612868565b925050819055506107dc33858560000160009054906101000a900473ffffffffffffffffffffffffffffffffffffffff1673ffffffffffffffffffffffffffffffffffffffff16611c339092919063ffffffff16565b5b61080f64e8d4a510006108018560030154856000015461193090919063ffffffff16565b6119aa90919063ffffffff16565b8260010181905550843373ffffffffffffffffffffffffffffffffffffffff167ff279e6a1f5e320cca91135676d9cb6e44ca8a08c0b88342bcdb1144f6511b5688660405161085e91906122a6565b60405180910390a35050505050565b60095481565b6000600682815481106108895761088861279e565b5b90600052602060002090600602019050806002015443116108aa5750610990565b60008160050154905060008114806108c6575060008260010154145b156108db574382600201819055505050610990565b60006108eb8360020154436111ca565b9050600061092e60085461092086600101546109126003548761193090919063ffffffff16565b61193090919063ffffffff16565b6119aa90919063ffffffff16565b905061093a3082611cb9565b61097a6109678461095964e8d4a510008561193090919063ffffffff16565b6119aa90919063ffffffff16565b8560030154611d6790919063ffffffff16565b8460030181905550438460020181905550505050505b50565b6000600682815481106109a9576109a861279e565b5b9060005260206000209060060201905060006007600084815260200190815260200160002060003373ffffffffffffffffffffffffffffffffffffffff1673ffffffffffffffffffffffffffffffffffffffff1681526020019081526020016000209050600081600001549050600082600001819055506000826001018190555080836005016000828254610a3e9190612868565b92505081905550610a9433828560000160009054906101000a900473ffffffffffffffffffffffffffffffffffffffff1673ffffffffffffffffffffffffffffffffffffffff16611c339092919063ffffffff16565b833373ffffffffffffffffffffffffffffffffffffffff167fbb757047c2b5f3974fe26b7c10f732e7bce710b0952a71082702781e62ae059583604051610adb91906122a6565b60405180910390a350505050565b60015481565b60008060068481548110610b0657610b0561279e565b5b9060005260206000209060060201905060006007600086815260200190815260200160002060008573ffffffffffffffffffffffffffffffffffffffff1673ffffffffffffffffffffffffffffffffffffffff168152602001908152602001600020905060008260030154905060008360000160009054906101000a900473ffffffffffffffffffffffffffffffffffffffff1673ffffffffffffffffffffffffffffffffffffffff166370a08231306040518263ffffffff1660e01b8152600401610bd29190612494565b602060405180830381865afa158015610bef573d6000803e3d6000fd5b505050506040513d601f19601f82011682018060405250810190610c1391906128b1565b9050836002015443118015610c29575060008114155b15610cc4576000610c3e8560020154436111ca565b90506000610c81600854610c738860010154610c656003548761193090919063ffffffff16565b61193090919063ffffffff16565b6119aa90919063ffffffff16565b9050610cbf610cb084610ca264e8d4a510008561193090919063ffffffff16565b6119aa90919063ffffffff16565b85611d6790919063ffffffff16565b935050505b610d088360010154610cfa64e8d4a51000610cec86886000015461193090919063ffffffff16565b6119aa90919063ffffffff16565b6119f490919063ffffffff16565b94505050505092915050565b6000600680549050905060005b81811015610d4357610d3281610873565b80610d3c906128de565b9050610d21565b5050565b610d4f611928565b73ffffffffffffffffffffffffffffffffffffffff1660008054906101000a900473ffffffffffffffffffffffffffffffffffffffff1673ffffffffffffffffffffffffffffffffffffffff1614610ddc576040517f08c379a0000000000000000000000000000000000000000000000000000000008152600401610dd39061277e565b60405180910390fd5b600073ffffffffffffffffffffffffffffffffffffffff1660008054906101000a900473ffffffffffffffffffffffffffffffffffffffff1673ffffffffffffffffffffffffffffffffffffffff167f8be0079c531659141344cd1fd0a4f28419497f9722a3daafe3b4186f6b6457e060405160405180910390a360008060006101000a81548173ffffffffffffffffffffffffffffffffffffffff021916908373ffffffffffffffffffffffffffffffffffffffff160217905550565b610ea2611928565b73ffffffffffffffffffffffffffffffffffffffff1660008054906101000a900473ffffffffffffffffffffffffffffffffffffffff1673ffffffffffffffffffffffffffffffffffffffff1614610f2f576040517f08c379a0000000000000000000000000000000000000000000000000000000008152600401610f269061277e565b60405180910390fd5b6005548261ffff161115610f78576040517f08c379a0000000000000000000000000000000000000000000000000000000008152600401610f6f90612972565b60405180910390fd5b8015610f8757610f86610d14565b5b60006009544311610f9a57600954610f9c565b435b9050610fb385600854611d6790919063ffffffff16565b60088190555060066040518060c001604052808673ffffffffffffffffffffffffffffffffffffffff168152602001878152602001838152602001600081526020018561ffff1681526020016000815250908060018154018082558091505060019003906000526020600020906006020160009091909190915060008201518160000160006101000a81548173ffffffffffffffffffffffffffffffffffffffff021916908373ffffffffffffffffffffffffffffffffffffffff16021790555060208201518160010155604082015181600201556060820151816003015560808201518160040160006101000a81548161ffff021916908361ffff16021790555060a0820151816005015550505050505050565b600460009054906101000a900473ffffffffffffffffffffffffffffffffffffffff1673ffffffffffffffffffffffffffffffffffffffff163373ffffffffffffffffffffffffffffffffffffffff1614611158576040517f08c379a000000000000000000000000000000000000000000000000000000000815260040161114f906129de565b60405180910390fd5b80600460006101000a81548173ffffffffffffffffffffffffffffffffffffffff021916908373ffffffffffffffffffffffffffffffffffffffff16021790555050565b600181565b60008060009054906101000a900473ffffffffffffffffffffffffffffffffffffffff16905090565b60006111f260016111e485856119f490919063ffffffff16565b61193090919063ffffffff16565b905092915050565b6007602052816000526040600020602052806000526040600020600091509150508060000154908060010154905082565b60035481565b611239611928565b73ffffffffffffffffffffffffffffffffffffffff1660008054906101000a900473ffffffffffffffffffffffffffffffffffffffff1673ffffffffffffffffffffffffffffffffffffffff16146112c6576040517f08c379a00000000000000000000000000000000000000000000000000000000081526004016112bd9061277e565b60405180910390fd5b6005548261ffff16111561130f576040517f08c379a000000000000000000000000000000000000000000000000000000000815260040161130690612972565b60405180910390fd5b801561131e5761131d610d14565b5b61136a8361135c600687815481106113395761133861279e565b5b9060005260206000209060060201600101546008546119f490919063ffffffff16565b611d6790919063ffffffff16565b60088190555082600685815481106113855761138461279e565b5b90600052602060002090600602016001018190555081600685815481106113af576113ae61279e565b5b906000526020600020906006020160040160006101000a81548161ffff021916908361ffff16021790555050505050565b6000600683815481106113f6576113f561279e565b5b9060005260206000209060060201905060006007600085815260200190815260200160002060003373ffffffffffffffffffffffffffffffffffffffff1673ffffffffffffffffffffffffffffffffffffffff168152602001908152602001600020905061146384610873565b6000816000015411156114d25760006114ba82600101546114ac64e8d4a5100061149e8760030154876000015461193090919063ffffffff16565b6119aa90919063ffffffff16565b6119f490919063ffffffff16565b905060008111156114d0576114cf3382611a3e565b5b505b60008311156117f85760008260000160009054906101000a900473ffffffffffffffffffffffffffffffffffffffff1673ffffffffffffffffffffffffffffffffffffffff166370a08231306040518263ffffffff1660e01b815260040161153a9190612494565b602060405180830381865afa158015611557573d6000803e3d6000fd5b505050506040513d601f19601f8201168201806040525081019061157b91906128b1565b90506115ce3330868660000160009054906101000a900473ffffffffffffffffffffffffffffffffffffffff1673ffffffffffffffffffffffffffffffffffffffff16611dc5909392919063ffffffff16565b60008360000160009054906101000a900473ffffffffffffffffffffffffffffffffffffffff1673ffffffffffffffffffffffffffffffffffffffff166370a08231306040518263ffffffff1660e01b815260040161162d9190612494565b602060405180830381865afa15801561164a573d6000803e3d6000fd5b505050506040513d601f19601f8201168201806040525081019061166e91906128b1565b905061168382826119f490919063ffffffff16565b945060008460040160009054906101000a900461ffff1661ffff1611156117ba5760006116e36127106116d58760040160009054906101000a900461ffff1661ffff168961193090919063ffffffff16565b6119aa90919063ffffffff16565b9050611756600460009054906101000a900473ffffffffffffffffffffffffffffffffffffffff16828760000160009054906101000a900473ffffffffffffffffffffffffffffffffffffffff1673ffffffffffffffffffffffffffffffffffffffff16611c339092919063ffffffff16565b61177f81611771888760000154611d6790919063ffffffff16565b6119f490919063ffffffff16565b846000018190555061179a81876119f490919063ffffffff16565b8560050160008282546117ad91906129fe565b92505081905550506117f5565b6117d1858460000154611d6790919063ffffffff16565b8360000181905550848460050160008282546117ed91906129fe565b925050819055505b50505b61182a64e8d4a5100061181c8460030154846000015461193090919063ffffffff16565b6119aa90919063ffffffff16565b8160010181905550833373ffffffffffffffffffffffffffffffffffffffff167f90890809c654f11d6e72a28fa60149770a0d11ec6c92319d6ceb2bb0a4ea1a158560405161187991906122a6565b60405180910390a350505050565b61188f611928565b73ffffffffffffffffffffffffffffffffffffffff1660008054906101000a900473ffffffffffffffffffffffffffffffffffffffff1673ffffffffffffffffffffffffffffffffffffffff161461191c576040517f08c379a00000000000000000000000000000000000000000000000000000000081526004016119139061277e565b60405180910390fd5b61192581611e4e565b50565b600033905090565b600080830361194257600090506119a4565b600082846119509190612a54565b905082848261195f9190612add565b1461199f576040517f08c379a000000000000000000000000000000000000000000000000000000000815260040161199690612b80565b60405180910390fd5b809150505b92915050565b60006119ec83836040518060400160405280601a81526020017f536166654d6174683a206469766973696f6e206279207a65726f000000000000815250611f7a565b905092915050565b6000611a3683836040518060400160405280601e81526020017f536166654d6174683a207375627472616374696f6e206f766572666c6f770000815250611fdd565b905092915050565b6000600260009054906101000a900473ffffffffffffffffffffffffffffffffffffffff1673ffffffffffffffffffffffffffffffffffffffff166370a08231306040518263ffffffff1660e01b8152600401611a9b9190612494565b602060405180830381865afa158015611ab8573d6000803e3d6000fd5b505050506040513d601f19601f82011682018060405250810190611adc91906128b1565b905080821115611b8c57600260009054906101000a900473ffffffffffffffffffffffffffffffffffffffff1673ffffffffffffffffffffffffffffffffffffffff1663a9059cbb84836040518363ffffffff1660e01b8152600401611b43929190612ba0565b6020604051808303816000875af1158015611b62573d6000803e3d6000fd5b505050506040513d601f19601f82011682018060405250810190611b869190612bde565b50611c2e565b600260009054906101000a900473ffffffffffffffffffffffffffffffffffffffff1673ffffffffffffffffffffffffffffffffffffffff1663a9059cbb84846040518363ffffffff1660e01b8152600401611be9929190612ba0565b6020604051808303816000875af1158015611c08573d6000803e3d6000fd5b505050506040513d601f19601f82011682018060405250810190611c2c9190612bde565b505b505050565b611cb48363a9059cbb60e01b8484604051602401611c52929190612ba0565b604051602081830303815290604052907bffffffffffffffffffffffffffffffffffffffffffffffffffffffff19166020820180517bffffffffffffffffffffffffffffffffffffffffffffffffffffffff8381831617835250505050612041565b505050565b600a60009054906101000a900473ffffffffffffffffffffffffffffffffffffffff1673ffffffffffffffffffffffffffffffffffffffff16637154815d83836040518363ffffffff1660e01b8152600401611d16929190612ba0565b600060405180830381600087803b158015611d3057600080fd5b505af1158015611d44573d6000803e3d6000fd5b50505050611d5d81600154611d6790919063ffffffff16565b6001819055505050565b6000808284611d7691906129fe565b905083811015611dbb576040517f08c379a0000000000000000000000000000000000000000000000000000000008152600401611db290612c57565b60405180910390fd5b8091505092915050565b611e48846323b872dd60e01b858585604051602401611de693929190612c77565b604051602081830303815290604052907bffffffffffffffffffffffffffffffffffffffffffffffffffffffff19166020820180517bffffffffffffffffffffffffffffffffffffffffffffffffffffffff8381831617835250505050612041565b50505050565b600073ffffffffffffffffffffffffffffffffffffffff168173ffffffffffffffffffffffffffffffffffffffff1603611ebd576040517f08c379a0000000000000000000000000000000000000000000000000000000008152600401611eb490612d20565b60405180910390fd5b8073ffffffffffffffffffffffffffffffffffffffff1660008054906101000a900473ffffffffffffffffffffffffffffffffffffffff1673ffffffffffffffffffffffffffffffffffffffff167f8be0079c531659141344cd1fd0a4f28419497f9722a3daafe3b4186f6b6457e060405160405180910390a3806000806101000a81548173ffffffffffffffffffffffffffffffffffffffff021916908373ffffffffffffffffffffffffffffffffffffffff16021790555050565b60008083118290611fc1576040517f08c379a0000000000000000000000000000000000000000000000000000000008152600401611fb89190612dc8565b60405180910390fd5b5060008385611fd09190612add565b9050809150509392505050565b6000838311158290612025576040517f08c379a000000000000000000000000000000000000000000000000000000000815260040161201c9190612dc8565b60405180910390fd5b50600083856120349190612868565b9050809150509392505050565b60006120a3826040518060400160405280602081526020017f5361666545524332303a206c6f772d6c6576656c2063616c6c206661696c65648152508573ffffffffffffffffffffffffffffffffffffffff166121089092919063ffffffff16565b905060008151111561210357808060200190518101906120c39190612bde565b612102576040517f08c379a00000000000000000000000000000000000000000000000000000000081526004016120f990612e5c565b60405180910390fd5b5b505050565b60606121178484600085612120565b90509392505050565b606061212b85612242565b61216a576040517f08c379a000000000000000000000000000000000000000000000000000000000815260040161216190612ec8565b60405180910390fd5b6000808673ffffffffffffffffffffffffffffffffffffffff1685876040516121939190612f2f565b60006040518083038185875af1925050503d80600081146121d0576040519150601f19603f3d011682016040523d82523d6000602084013e6121d5565b606091505b509150915081156121ea57809250505061223a565b6000815111156121fd5780518082602001fd5b836040517f08c379a00000000000000000000000000000000000000000000000000000000081526004016122319190612dc8565b60405180910390fd5b949350505050565b60008060007fc5d2460186f7233c927e7db2dcc703c0e500b653ca82273b7bfad8045d85a47060001b9050833f915080821415801561228457506000801b8214155b92505050919050565b6000819050919050565b6122a08161228d565b82525050565b60006020820190506122bb6000830184612297565b92915050565b600080fd5b6122cf8161228d565b81146122da57600080fd5b50565b6000813590506122ec816122c6565b92915050565b600060208284031215612308576123076122c1565b5b6000612316848285016122dd565b91505092915050565b600073ffffffffffffffffffffffffffffffffffffffff82169050919050565b6000819050919050565b600061236461235f61235a8461231f565b61233f565b61231f565b9050919050565b600061237682612349565b9050919050565b60006123888261236b565b9050919050565b6123988161237d565b82525050565b600061ffff82169050919050565b6123b58161239e565b82525050565b600060c0820190506123d0600083018961238f565b6123dd6020830188612297565b6123ea6040830187612297565b6123f76060830186612297565b61240460808301856123ac565b61241160a0830184612297565b979650505050505050565b60006124278261236b565b9050919050565b6124378161241c565b82525050565b6000602082019050612452600083018461242e565b92915050565b600060208201905061246d600083018461238f565b92915050565b600061247e8261231f565b9050919050565b61248e81612473565b82525050565b60006020820190506124a96000830184612485565b92915050565b600080604083850312156124c6576124c56122c1565b5b60006124d4858286016122dd565b92505060206124e5858286016122dd565b9150509250929050565b6124f881612473565b811461250357600080fd5b50565b600081359050612515816124ef565b92915050565b60008060408385031215612532576125316122c1565b5b6000612540858286016122dd565b925050602061255185828601612506565b9150509250929050565b600061256682612473565b9050919050565b6125768161255b565b811461258157600080fd5b50565b6000813590506125938161256d565b92915050565b6125a28161239e565b81146125ad57600080fd5b50565b6000813590506125bf81612599565b92915050565b60008115159050919050565b6125da816125c5565b81146125e557600080fd5b50565b6000813590506125f7816125d1565b92915050565b60008060008060808587031215612617576126166122c1565b5b6000612625878288016122dd565b945050602061263687828801612584565b9350506040612647878288016125b0565b9250506060612658878288016125e8565b91505092959194509250565b60006020828403121561267a576126796122c1565b5b600061268884828501612506565b91505092915050565b60006040820190506126a66000830185612297565b6126b36020830184612297565b9392505050565b600080600080608085870312156126d4576126d36122c1565b5b60006126e2878288016122dd565b94505060206126f3878288016122dd565b9350506040612704878288016125b0565b9250506060612715878288016125e8565b91505092959194509250565b600082825260208201905092915050565b7f4f776e61626c653a2063616c6c6572206973206e6f7420746865206f776e6572600082015250565b6000612768602083612721565b915061277382612732565b602082019050919050565b600060208201905081810360008301526127978161275b565b9050919050565b7f4e487b7100000000000000000000000000000000000000000000000000000000600052603260045260246000fd5b7f77697468647261773a206e6f7420676f6f640000000000000000000000000000600082015250565b6000612803601283612721565b915061280e826127cd565b602082019050919050565b60006020820190508181036000830152612832816127f6565b9050919050565b7f4e487b7100000000000000000000000000000000000000000000000000000000600052601160045260246000fd5b60006128738261228d565b915061287e8361228d565b92508282101561289157612890612839565b5b828203905092915050565b6000815190506128ab816122c6565b92915050565b6000602082840312156128c7576128c66122c1565b5b60006128d58482850161289c565b91505092915050565b60006128e98261228d565b91507fffffffffffffffffffffffffffffffffffffffffffffffffffffffffffffffff820361291b5761291a612839565b5b600182019050919050565b7f696e76616c696420666565000000000000000000000000000000000000000000600082015250565b600061295c600b83612721565b915061296782612926565b602082019050919050565b6000602082019050818103600083015261298b8161294f565b9050919050565b7f736574466565416464726573733a20464f5242494444454e0000000000000000600082015250565b60006129c8601883612721565b91506129d382612992565b602082019050919050565b600060208201905081810360008301526129f7816129bb565b9050919050565b6000612a098261228d565b9150612a148361228d565b9250827fffffffffffffffffffffffffffffffffffffffffffffffffffffffffffffffff03821115612a4957612a48612839565b5b828201905092915050565b6000612a5f8261228d565b9150612a6a8361228d565b9250817fffffffffffffffffffffffffffffffffffffffffffffffffffffffffffffffff0483118215151615612aa357612aa2612839565b5b828202905092915050565b7f4e487b7100000000000000000000000000000000000000000000000000000000600052601260045260246000fd5b6000612ae88261228d565b9150612af38361228d565b925082612b0357612b02612aae565b5b828204905092915050565b7f536166654d6174683a206d756c7469706c69636174696f6e206f766572666c6f60008201527f7700000000000000000000000000000000000000000000000000000000000000602082015250565b6000612b6a602183612721565b9150612b7582612b0e565b604082019050919050565b60006020820190508181036000830152612b9981612b5d565b9050919050565b6000604082019050612bb56000830185612485565b612bc26020830184612297565b9392505050565b600081519050612bd8816125d1565b92915050565b600060208284031215612bf457612bf36122c1565b5b6000612c0284828501612bc9565b91505092915050565b7f536166654d6174683a206164646974696f6e206f766572666c6f770000000000600082015250565b6000612c41601b83612721565b9150612c4c82612c0b565b602082019050919050565b60006020820190508181036000830152612c7081612c34565b9050919050565b6000606082019050612c8c6000830186612485565b612c996020830185612485565b612ca66040830184612297565b949350505050565b7f4f776e61626c653a206e6577206f776e657220697320746865207a65726f206160008201527f6464726573730000000000000000000000000000000000000000000000000000602082015250565b6000612d0a602683612721565b9150612d1582612cae565b604082019050919050565b60006020820190508181036000830152612d3981612cfd565b9050919050565b600081519050919050565b60005b83811015612d69578082015181840152602081019050612d4e565b83811115612d78576000848401525b50505050565b6000601f19601f8301169050919050565b6000612d9a82612d40565b612da48185612721565b9350612db4818560208601612d4b565b612dbd81612d7e565b840191505092915050565b60006020820190508181036000830152612de28184612d8f565b905092915050565b7f5361666545524332303a204552433230206f7065726174696f6e20646964206e60008201527f6f74207375636365656400000000000000000000000000000000000000000000602082015250565b6000612e46602a83612721565b9150612e5182612dea565b604082019050919050565b60006020820190508181036000830152612e7581612e39565b9050919050565b7f416464726573733a2063616c6c20746f206e6f6e2d636f6e7472616374000000600082015250565b6000612eb2601d83612721565b9150612ebd82612e7c565b602082019050919050565b60006020820190508181036000830152612ee181612ea5565b9050919050565b600081519050919050565b600081905092915050565b6000612f0982612ee8565b612f138185612ef3565b9350612f23818560208601612d4b565b80840191505092915050565b6000612f3b8284612efe565b91508190509291505056fea264697066735822122040b980dbebb19575dff281ba6b7dff76d1a004206bdd50c8907413909136eb4b64736f6c634300080d0033",
  "immutableReferences": {},
  "source": "//SPDX-License-Identifier: MIT\npragma solidity ^0.8.0;\n\n//\n/*\n * @dev Provides information about the current execution context, including the\n * sender of the transaction and its data. While these are generally available\n * via msg.sender and msg.data, they should not be accessed in such a direct\n * manner, since when dealing with GSN meta-transactions the account sending and\n * paying for execution may not be the actual sender (as far as an application\n * is concerned).\n *\n * This contract is only required for intermediate, library-like contracts.\n */\ncontract Context {\n    // Empty internal constructor, to prevent people from mistakenly deploying\n    // an instance of this contract, which should be used via inheritance.\n    constructor() {}\n\n    function _msgSender() internal view returns (address payable) {\n        return payable(msg.sender);\n    }\n\n    function _msgData() internal view returns (bytes memory) {\n        this; // silence state mutability warning without generating bytecode - see https://github.com/ethereum/solidity/issues/2691\n        return msg.data;\n    }\n}\n\n//\n/**\n * @dev Contract module which provides a basic access control mechanism, where\n * there is an account (an owner) that can be granted exclusive access to\n * specific functions.\n *\n * By default, the owner account will be the one that deploys the contract. This\n * can later be changed with {transferOwnership}.\n *\n * This module is used through inheritance. It will make available the modifier\n * `onlyOwner`, which can be applied to your functions to restrict their use to\n * the owner.\n */\ncontract Ownable is Context {\n    address private _owner;\n\n    event OwnershipTransferred(\n        address indexed previousOwner,\n        address indexed newOwner\n    );\n\n    /**\n     * @dev Initializes the contract setting the deployer as the initial owner.\n     */\n    constructor() {\n        address msgSender = _msgSender();\n        _owner = msgSender;\n        emit OwnershipTransferred(address(0), msgSender);\n    }\n\n    /**\n     * @dev Returns the address of the current owner.\n     */\n    function owner() public view returns (address) {\n        return _owner;\n    }\n\n    /**\n     * @dev Throws if called by any account other than the owner.\n     */\n    modifier onlyOwner() {\n        require(_owner == _msgSender(), \"Ownable: caller is not the owner\");\n        _;\n    }\n\n    /**\n     * @dev Leaves the contract without owner. It will not be possible to call\n     * `onlyOwner` functions anymore. Can only be called by the current owner.\n     *\n     * NOTE: Renouncing ownership will leave the contract without an owner,\n     * thereby removing any functionality that is only available to the owner.\n     */\n    function renounceOwnership() public onlyOwner {\n        emit OwnershipTransferred(_owner, address(0));\n        _owner = address(0);\n    }\n\n    /**\n     * @dev Transfers ownership of the contract to a new account (`newOwner`).\n     * Can only be called by the current owner.\n     */\n    function transferOwnership(address newOwner) public onlyOwner {\n        _transferOwnership(newOwner);\n    }\n\n    /**\n     * @dev Transfers ownership of the contract to a new account (`newOwner`).\n     */\n    function _transferOwnership(address newOwner) internal {\n        require(\n            newOwner != address(0),\n            \"Ownable: new owner is the zero address\"\n        );\n        emit OwnershipTransferred(_owner, newOwner);\n        _owner = newOwner;\n    }\n}\n\n//\ninterface IERC20 {\n    /**\n     * @dev Returns the amount of tokens in existence.\n     */\n    function totalSupply() external view returns (uint256);\n\n    /**\n     * @dev Returns the token decimals.\n     */\n    function decimals() external view returns (uint8);\n\n    /**\n     * @dev Returns the token symbol.\n     */\n    function symbol() external view returns (string memory);\n\n    /**\n     * @dev Returns the token name.\n     */\n    function name() external view returns (string memory);\n\n    /**\n     * @dev Returns the bep token owner.\n     */\n    function getOwner() external view returns (address);\n\n    /**\n     * @dev Returns the amount of tokens owned by `account`.\n     */\n    function balanceOf(address account) external view returns (uint256);\n\n    /**\n     * @dev Moves `amount` tokens from the caller's account to `recipient`.\n     *\n     * Returns a boolean value indicating whether the operation succeeded.\n     *\n     * Emits a {Transfer} event.\n     */\n    function transfer(address recipient, uint256 amount)\n        external\n        returns (bool);\n\n    /**\n     * @dev Returns the remaining number of tokens that `spender` will be\n     * allowed to spend on behalf of `owner` through {transferFrom}. This is\n     * zero by default.\n     *\n     * This value changes when {approve} or {transferFrom} are called.\n     */\n    function allowance(address _owner, address spender)\n        external\n        view\n        returns (uint256);\n\n    /**\n     * @dev Sets `amount` as the allowance of `spender` over the caller's tokens.\n     *\n     * Returns a boolean value indicating whether the operation succeeded.\n     *\n     * IMPORTANT: Beware that changing an allowance with this method brings the risk\n     * that someone may use both the old and the new allowance by unfortunate\n     * transaction ordering. One possible solution to mitigate this race\n     * condition is to first reduce the spender's allowance to 0 and set the\n     * desired value afterwards:\n     * https://github.com/ethereum/EIPs/issues/20#issuecomment-263524729\n     *\n     * Emits an {Approval} event.\n     */\n    function approve(address spender, uint256 amount) external returns (bool);\n\n    /**\n     * @dev Moves `amount` tokens from `sender` to `recipient` using the\n     * allowance mechanism. `amount` is then deducted from the caller's\n     * allowance.\n     *\n     * Returns a boolean value indicating whether the operation succeeded.\n     *\n     * Emits a {Transfer} event.\n     */\n    function transferFrom(\n        address sender,\n        address recipient,\n        uint256 amount\n    ) external returns (bool);\n\n    /**\n     * @dev Emitted when `value` tokens are moved from one account (`from`) to\n     * another (`to`).\n     *\n     * Note that `value` may be zero.\n     */\n    event Transfer(address indexed from, address indexed to, uint256 value);\n\n    /**\n     * @dev Emitted when the allowance of a `spender` for an `owner` is set by\n     * a call to {approve}. `value` is the new allowance.\n     */\n    event Approval(\n        address indexed owner,\n        address indexed spender,\n        uint256 value\n    );\n}\n\n//\n/**\n * @dev Wrappers over Solidity's arithmetic operations with added overflow\n * checks.\n *\n * Arithmetic operations in Solidity wrap on overflow. This can easily result\n * in bugs, because programmers usually assume that an overflow raises an\n * error, which is the standard behavior in high level programming languages.\n * `SafeMath` restores this intuition by reverting the transaction when an\n * operation overflows.\n *\n * Using this library instead of the unchecked operations eliminates an entire\n * class of bugs, so it's recommended to use it always.\n */\nlibrary SafeMath {\n    /**\n     * @dev Returns the addition of two unsigned integers, reverting on\n     * overflow.\n     *\n     * Counterpart to Solidity's `+` operator.\n     *\n     * Requirements:\n     *\n     * - Addition cannot overflow.\n     */\n    function add(uint256 a, uint256 b) internal pure returns (uint256) {\n        uint256 c = a + b;\n        require(c >= a, \"SafeMath: addition overflow\");\n\n        return c;\n    }\n\n    /**\n     * @dev Returns the subtraction of two unsigned integers, reverting on\n     * overflow (when the result is negative).\n     *\n     * Counterpart to Solidity's `-` operator.\n     *\n     * Requirements:\n     *\n     * - Subtraction cannot overflow.\n     */\n    function sub(uint256 a, uint256 b) internal pure returns (uint256) {\n        return sub(a, b, \"SafeMath: subtraction overflow\");\n    }\n\n    /**\n     * @dev Returns the subtraction of two unsigned integers, reverting with custom message on\n     * overflow (when the result is negative).\n     *\n     * Counterpart to Solidity's `-` operator.\n     *\n     * Requirements:\n     *\n     * - Subtraction cannot overflow.\n     */\n    function sub(\n        uint256 a,\n        uint256 b,\n        string memory errorMessage\n    ) internal pure returns (uint256) {\n        require(b <= a, errorMessage);\n        uint256 c = a - b;\n\n        return c;\n    }\n\n    /**\n     * @dev Returns the multiplication of two unsigned integers, reverting on\n     * overflow.\n     *\n     * Counterpart to Solidity's `*` operator.\n     *\n     * Requirements:\n     *\n     * - Multiplication cannot overflow.\n     */\n    function mul(uint256 a, uint256 b) internal pure returns (uint256) {\n        // Gas optimization: this is cheaper than requiring 'a' not being zero, but the\n        // benefit is lost if 'b' is also tested.\n        // See: https://github.com/OpenZeppelin/openzeppelin-contracts/pull/522\n        if (a == 0) {\n            return 0;\n        }\n\n        uint256 c = a * b;\n        require(c / a == b, \"SafeMath: multiplication overflow\");\n\n        return c;\n    }\n\n    /**\n     * @dev Returns the integer division of two unsigned integers. Reverts on\n     * division by zero. The result is rounded towards zero.\n     *\n     * Counterpart to Solidity's `/` operator. Note: this function uses a\n     * `revert` opcode (which leaves remaining gas untouched) while Solidity\n     * uses an invalid opcode to revert (consuming all remaining gas).\n     *\n     * Requirements:\n     *\n     * - The divisor cannot be zero.\n     */\n    function div(uint256 a, uint256 b) internal pure returns (uint256) {\n        return div(a, b, \"SafeMath: division by zero\");\n    }\n\n    /**\n     * @dev Returns the integer division of two unsigned integers. Reverts with custom message on\n     * division by zero. The result is rounded towards zero.\n     *\n     * Counterpart to Solidity's `/` operator. Note: this function uses a\n     * `revert` opcode (which leaves remaining gas untouched) while Solidity\n     * uses an invalid opcode to revert (consuming all remaining gas).\n     *\n     * Requirements:\n     *\n     * - The divisor cannot be zero.\n     */\n    function div(\n        uint256 a,\n        uint256 b,\n        string memory errorMessage\n    ) internal pure returns (uint256) {\n        require(b > 0, errorMessage);\n        uint256 c = a / b;\n        // assert(a == b * c + a % b); // There is no case in which this doesn't hold\n\n        return c;\n    }\n\n    /**\n     * @dev Returns the remainder of dividing two unsigned integers. (unsigned integer modulo),\n     * Reverts when dividing by zero.\n     *\n     * Counterpart to Solidity's `%` operator. This function uses a `revert`\n     * opcode (which leaves remaining gas untouched) while Solidity uses an\n     * invalid opcode to revert (consuming all remaining gas).\n     *\n     * Requirements:\n     *\n     * - The divisor cannot be zero.\n     */\n    function mod(uint256 a, uint256 b) internal pure returns (uint256) {\n        return mod(a, b, \"SafeMath: modulo by zero\");\n    }\n\n    /**\n     * @dev Returns the remainder of dividing two unsigned integers. (unsigned integer modulo),\n     * Reverts with custom message when dividing by zero.\n     *\n     * Counterpart to Solidity's `%` operator. This function uses a `revert`\n     * opcode (which leaves remaining gas untouched) while Solidity uses an\n     * invalid opcode to revert (consuming all remaining gas).\n     *\n     * Requirements:\n     *\n     * - The divisor cannot be zero.\n     */\n    function mod(\n        uint256 a,\n        uint256 b,\n        string memory errorMessage\n    ) internal pure returns (uint256) {\n        require(b != 0, errorMessage);\n        return a % b;\n    }\n\n    function min(uint256 x, uint256 y) internal pure returns (uint256 z) {\n        z = x < y ? x : y;\n    }\n\n    // babylonian method (https://en.wikipedia.org/wiki/Methods_of_computing_square_roots#Babylonian_method)\n    function sqrt(uint256 y) internal pure returns (uint256 z) {\n        if (y > 3) {\n            z = y;\n            uint256 x = y / 2 + 1;\n            while (x < z) {\n                z = x;\n                x = (y / x + x) / 2;\n            }\n        } else if (y != 0) {\n            z = 1;\n        }\n    }\n}\n\n//\n/**\n * @dev Collection of functions related to the address type\n */\nlibrary Address {\n    /**\n     * @dev Returns true if `account` is a contract.\n     *\n     * [IMPORTANT]\n     * ====\n     * It is unsafe to assume that an address for which this function returns\n     * false is an externally-owned account (EOA) and not a contract.\n     *\n     * Among others, `isContract` will return false for the following\n     * types of addresses:\n     *\n     *  - an externally-owned account\n     *  - a contract in construction\n     *  - an address where a contract will be created\n     *  - an address where a contract lived, but was destroyed\n     * ====\n     */\n    function isContract(address account) internal view returns (bool) {\n        // According to EIP-1052, 0x0 is the value returned for not-yet created accounts\n        // and 0xc5d2460186f7233c927e7db2dcc703c0e500b653ca82273b7bfad8045d85a470 is returned\n        // for accounts without code, i.e. `keccak256('')`\n        bytes32 codehash;\n        bytes32 accountHash = 0xc5d2460186f7233c927e7db2dcc703c0e500b653ca82273b7bfad8045d85a470;\n        // solhint-disable-next-line no-inline-assembly\n        assembly {\n            codehash := extcodehash(account)\n        }\n        return (codehash != accountHash && codehash != 0x0);\n    }\n\n    /**\n     * @dev Replacement for Solidity's `transfer`: sends `amount` wei to\n     * `recipient`, forwarding all available gas and reverting on errors.\n     *\n     * https://eips.ethereum.org/EIPS/eip-1884[EIP1884] increases the gas cost\n     * of certain opcodes, possibly making contracts go over the 2300 gas limit\n     * imposed by `transfer`, making them unable to receive funds via\n     * `transfer`. {sendValue} removes this limitation.\n     *\n     * https://diligence.consensys.net/posts/2019/09/stop-using-soliditys-transfer-now/[Learn more].\n     *\n     * IMPORTANT: because control is transferred to `recipient`, care must be\n     * taken to not create reentrancy vulnerabilities. Consider using\n     * {ReentrancyGuard} or the\n     * https://solidity.readthedocs.io/en/v0.5.11/security-considerations.html#use-the-checks-effects-interactions-pattern[checks-effects-interactions pattern].\n     */\n    function sendValue(address payable recipient, uint256 amount) internal {\n        require(\n            address(this).balance >= amount,\n            \"Address: insufficient balance\"\n        );\n\n        // solhint-disable-next-line avoid-low-level-calls, avoid-call-value\n        (bool success, ) = recipient.call{value: amount}(\"\");\n        require(\n            success,\n            \"Address: unable to send value, recipient may have reverted\"\n        );\n    }\n\n    /**\n     * @dev Performs a Solidity function call using a low level `call`. A\n     * plain`call` is an unsafe replacement for a function call: use this\n     * function instead.\n     *\n     * If `target` reverts with a revert reason, it is bubbled up by this\n     * function (like regular Solidity function calls).\n     *\n     * Returns the raw returned data. To convert to the expected return value,\n     * use https://solidity.readthedocs.io/en/latest/units-and-global-variables.html?highlight=abi.decode#abi-encoding-and-decoding-functions[`abi.decode`].\n     *\n     * Requirements:\n     *\n     * - `target` must be a contract.\n     * - calling `target` with `data` must not revert.\n     *\n     * _Available since v3.1._\n     */\n    function functionCall(address target, bytes memory data)\n        internal\n        returns (bytes memory)\n    {\n        return functionCall(target, data, \"Address: low-level call failed\");\n    }\n\n    /**\n     * @dev Same as {xref-Address-functionCall-address-bytes-}[`functionCall`], but with\n     * `errorMessage` as a fallback revert reason when `target` reverts.\n     *\n     * _Available since v3.1._\n     */\n    function functionCall(\n        address target,\n        bytes memory data,\n        string memory errorMessage\n    ) internal returns (bytes memory) {\n        return _functionCallWithValue(target, data, 0, errorMessage);\n    }\n\n    /**\n     * @dev Same as {xref-Address-functionCall-address-bytes-}[`functionCall`],\n     * but also transferring `value` wei to `target`.\n     *\n     * Requirements:\n     *\n     * - the calling contract must have an ETH balance of at least `value`.\n     * - the called Solidity function must be `payable`.\n     *\n     * _Available since v3.1._\n     */\n    function functionCallWithValue(\n        address target,\n        bytes memory data,\n        uint256 value\n    ) internal returns (bytes memory) {\n        return\n            functionCallWithValue(\n                target,\n                data,\n                value,\n                \"Address: low-level call with value failed\"\n            );\n    }\n\n    /**\n     * @dev Same as {xref-Address-functionCallWithValue-address-bytes-uint256-}[`functionCallWithValue`], but\n     * with `errorMessage` as a fallback revert reason when `target` reverts.\n     *\n     * _Available since v3.1._\n     */\n    function functionCallWithValue(\n        address target,\n        bytes memory data,\n        uint256 value,\n        string memory errorMessage\n    ) internal returns (bytes memory) {\n        require(\n            address(this).balance >= value,\n            \"Address: insufficient balance for call\"\n        );\n        return _functionCallWithValue(target, data, value, errorMessage);\n    }\n\n    function _functionCallWithValue(\n        address target,\n        bytes memory data,\n        uint256 weiValue,\n        string memory errorMessage\n    ) private returns (bytes memory) {\n        require(isContract(target), \"Address: call to non-contract\");\n\n        // solhint-disable-next-line avoid-low-level-calls\n        (bool success, bytes memory returndata) = target.call{value: weiValue}(\n            data\n        );\n        if (success) {\n            return returndata;\n        } else {\n            // Look for revert reason and bubble it up if present\n            if (returndata.length > 0) {\n                // The easiest way to bubble the revert reason is using memory via assembly\n\n                // solhint-disable-next-line no-inline-assembly\n                assembly {\n                    let returndata_size := mload(returndata)\n                    revert(add(32, returndata), returndata_size)\n                }\n            } else {\n                revert(errorMessage);\n            }\n        }\n    }\n}\n\n/**\n * @title SafeERC20\n * @dev Wrappers around ERC20 operations that throw on failure (when the token\n * contract returns false). Tokens that return no value (and instead revert or\n * throw on failure) are also supported, non-reverting calls are assumed to be\n * successful.\n * To use this library you can add a `using SafeERC20 for IERC20;` statement to your contract,\n * which allows you to call the safe operations as `token.safeTransfer(...)`, etc.\n */\nlibrary SafeERC20 {\n    using SafeMath for uint256;\n    using Address for address;\n\n    function safeTransfer(\n        IERC20 token,\n        address to,\n        uint256 value\n    ) internal {\n        _callOptionalReturn(\n            token,\n            abi.encodeWithSelector(token.transfer.selector, to, value)\n        );\n    }\n\n    function safeTransferFrom(\n        IERC20 token,\n        address from,\n        address to,\n        uint256 value\n    ) internal {\n        _callOptionalReturn(\n            token,\n            abi.encodeWithSelector(token.transferFrom.selector, from, to, value)\n        );\n    }\n\n    /**\n     * @dev Deprecated. This function has issues similar to the ones found in\n     * {IERC20-approve}, and its usage is discouraged.\n     *\n     * Whenever possible, use {safeIncreaseAllowance} and\n     * {safeDecreaseAllowance} instead.\n     */\n    function safeApprove(\n        IERC20 token,\n        address spender,\n        uint256 value\n    ) internal {\n        // safeApprove should only be called when setting an initial allowance,\n        // or when resetting it to zero. To increase and decrease it, use\n        // 'safeIncreaseAllowance' and 'safeDecreaseAllowance'\n        // solhint-disable-next-line max-line-length\n        require(\n            (value == 0) || (token.allowance(address(this), spender) == 0),\n            \"SafeERC20: approve from non-zero to non-zero allowance\"\n        );\n        _callOptionalReturn(\n            token,\n            abi.encodeWithSelector(token.approve.selector, spender, value)\n        );\n    }\n\n    function safeIncreaseAllowance(\n        IERC20 token,\n        address spender,\n        uint256 value\n    ) internal {\n        uint256 newAllowance = token.allowance(address(this), spender).add(\n            value\n        );\n        _callOptionalReturn(\n            token,\n            abi.encodeWithSelector(\n                token.approve.selector,\n                spender,\n                newAllowance\n            )\n        );\n    }\n\n    function safeDecreaseAllowance(\n        IERC20 token,\n        address spender,\n        uint256 value\n    ) internal {\n        uint256 newAllowance = token.allowance(address(this), spender).sub(\n            value,\n            \"SafeERC20: decreased allowance below zero\"\n        );\n        _callOptionalReturn(\n            token,\n            abi.encodeWithSelector(\n                token.approve.selector,\n                spender,\n                newAllowance\n            )\n        );\n    }\n\n    /**\n     * @dev Imitates a Solidity high-level call (i.e. a regular function call to a contract), relaxing the requirement\n     * on the return value: the return value is optional (but if data is returned, it must not be false).\n     * @param token The token targeted by the call.\n     * @param data The call data (encoded using abi.encode or one of its variants).\n     */\n    function _callOptionalReturn(IERC20 token, bytes memory data) private {\n        // We need to perform a low level call here, to bypass Solidity's return data size checking mechanism, since\n        // we're implementing it ourselves. We use {Address.functionCall} to perform this call, which verifies that\n        // the target address contains contract code and also asserts for success in the low-level call.\n\n        bytes memory returndata = address(token).functionCall(\n            data,\n            \"SafeERC20: low-level call failed\"\n        );\n        if (returndata.length > 0) {\n            // Return data is optional\n            // solhint-disable-next-line max-line-length\n            require(\n                abi.decode(returndata, (bool)),\n                \"SafeERC20: ERC20 operation did not succeed\"\n            );\n        }\n    }\n}\n\ncontract CHIMPStakingReserve is Ownable {\n    using SafeERC20 for IERC20;\n    using SafeMath for uint256;\n    mapping(address => bool) public operators;\n\n    IERC20 public chimpToken;\n\n    constructor(IERC20 _chimpToken) {\n        chimpToken = _chimpToken;\n    }\n\n    function addOrRemoveOperators(address addr, bool isAdd) public onlyOwner {\n        operators[addr] = isAdd;\n    }\n\n    function getCHIMPBalance() public view returns (uint256) {\n        uint256 balance = chimpToken.balanceOf(address(this));\n        return balance;\n    }\n\n    function withdrawCHIMP(address to, uint256 amount) public {\n        require(operators[msg.sender] == true, \"not allowed\");\n        uint256 balance = getCHIMPBalance();\n        if (balance < amount) {\n            chimpToken.transfer(to, balance);\n        } else {\n            chimpToken.transfer(to, amount);\n        }\n    }\n}\n\ncontract CHIMPMasterChef is Ownable {\n    using SafeMath for uint256;\n    using SafeERC20 for IERC20;\n\n    uint256 public totalRewardPaid;\n\n    // Info of each user.\n    struct UserInfo {\n        uint256 amount;\n        uint256 rewardDebt;\n    }\n\n    // Info of each pool.\n    struct PoolInfo {\n        IERC20 lpToken; // Address of LP token contract.\n        uint256 allocPoint; // How many allocation points assigned to this pool. CHIMPs to distribute per block.\n        uint256 lastRewardBlock; // Last block number that CHIMPs distribution occurs.\n        uint256 accCHIMPPerShare; // Accumulated CHIMPs per share, times 1e12. See below.\n        uint16 depositFeeBP; // Deposit fee in basis points\n        uint256 tvl;\n    }\n\n    // The CHIMP TOKEN!\n    IERC20 public chimp;\n    // CHIMP tokens created per block.\n    uint256 public chimpPerBlock;\n    // Bonus muliplier for early chimp makers.\n    uint256 public constant BONUS_MULTIPLIER = 1;\n    // Deposit Fee address\n    address public feeAddress;\n    uint256 private MAX_FEE = 500; //5%\n\n    // Info of each pool.\n    PoolInfo[] public poolInfo;\n    // Info of each user that stakes LP tokens.\n    mapping(uint256 => mapping(address => UserInfo)) public userInfo;\n    // Total allocation points. Must be the sum of all allocation points in all pools.\n    uint256 public totalAllocPoint = 0;\n    // The block number when CHIMP mining starts.\n    uint256 public startBlock;\n\n    CHIMPStakingReserve public chimpStakingReserve;\n\n    event Deposit(address indexed user, uint256 indexed pid, uint256 amount);\n    event Withdraw(address indexed user, uint256 indexed pid, uint256 amount);\n    event EmergencyWithdraw(\n        address indexed user,\n        uint256 indexed pid,\n        uint256 amount\n    );\n\n    constructor(\n        IERC20 _chimp,\n        address _feeAddress,\n        uint256 _chimpPerBlock,\n        CHIMPStakingReserve _CHIMPStakingReserve,\n        uint256 _startBlock\n    ) {\n        chimp = _chimp;\n        feeAddress = _feeAddress;\n        chimpPerBlock = _chimpPerBlock;\n        chimpStakingReserve = _CHIMPStakingReserve;\n        startBlock = _startBlock;\n    }\n\n    function poolLength() external view returns (uint256) {\n        return poolInfo.length;\n    }\n\n    function add(\n        uint256 _allocPoint,\n        IERC20 _lpToken,\n        uint16 _depositFeeBP,\n        bool _withUpdate\n    ) public onlyOwner {\n        require(_depositFeeBP <= MAX_FEE, \"invalid fee\");\n        if (_withUpdate) {\n            massUpdatePools();\n        }\n        uint256 lastRewardBlock = block.number > startBlock\n            ? block.number\n            : startBlock;\n        totalAllocPoint = totalAllocPoint.add(_allocPoint);\n        poolInfo.push(\n            PoolInfo({\n                lpToken: _lpToken,\n                allocPoint: _allocPoint,\n                lastRewardBlock: lastRewardBlock,\n                accCHIMPPerShare: 0,\n                depositFeeBP: _depositFeeBP,\n                tvl: 0\n            })\n        );\n    }\n\n    // Update the given pool's CHIMP allocation point and deposit fee. Can only be called by the owner.\n    function set(\n        uint256 _pid,\n        uint256 _allocPoint,\n        uint16 _depositFeeBP,\n        bool _withUpdate\n    ) public onlyOwner {\n        require(_depositFeeBP <= MAX_FEE, \"invalid fee\");\n        if (_withUpdate) {\n            massUpdatePools();\n        }\n        totalAllocPoint = totalAllocPoint.sub(poolInfo[_pid].allocPoint).add(\n            _allocPoint\n        );\n        poolInfo[_pid].allocPoint = _allocPoint;\n        poolInfo[_pid].depositFeeBP = _depositFeeBP;\n    }\n\n    // Return reward multiplier over the given _from to _to block.\n    function getMultiplier(uint256 _from, uint256 _to)\n        public\n        pure\n        returns (uint256)\n    {\n        return _to.sub(_from).mul(BONUS_MULTIPLIER);\n    }\n\n    // View function to see pending CHIMPs on frontend.\n    function pendingCHIMP(uint256 _pid, address _user)\n        external\n        view\n        returns (uint256)\n    {\n        PoolInfo storage pool = poolInfo[_pid];\n        UserInfo storage user = userInfo[_pid][_user];\n        uint256 accCHIMPPerShare = pool.accCHIMPPerShare;\n        uint256 lpSupply = pool.lpToken.balanceOf(address(this));\n        if (block.number > pool.lastRewardBlock && lpSupply != 0) {\n            uint256 multiplier = getMultiplier(\n                pool.lastRewardBlock,\n                block.number\n            );\n            uint256 chimpReward = multiplier\n                .mul(chimpPerBlock)\n                .mul(pool.allocPoint)\n                .div(totalAllocPoint);\n            accCHIMPPerShare = accCHIMPPerShare.add(\n                chimpReward.mul(1e12).div(lpSupply)\n            );\n        }\n        return user.amount.mul(accCHIMPPerShare).div(1e12).sub(user.rewardDebt);\n    }\n\n    // Update reward variables for all pools. Be careful of gas spending!\n    function massUpdatePools() public {\n        uint256 length = poolInfo.length;\n        for (uint256 pid = 0; pid < length; ++pid) {\n            updatePool(pid);\n        }\n    }\n\n    // Update reward variables of the given pool to be up-to-date.\n    function updatePool(uint256 _pid) public {\n        PoolInfo storage pool = poolInfo[_pid];\n        if (block.number <= pool.lastRewardBlock) {\n            return;\n        }\n        uint256 lpSupply = pool.tvl;\n        if (lpSupply == 0 || pool.allocPoint == 0) {\n            pool.lastRewardBlock = block.number;\n            return;\n        }\n        uint256 multiplier = getMultiplier(pool.lastRewardBlock, block.number);\n        uint256 chimpReward = multiplier\n            .mul(chimpPerBlock)\n            .mul(pool.allocPoint)\n            .div(totalAllocPoint);\n\n        refillCHIMP(address(this), chimpReward);\n\n        pool.accCHIMPPerShare = pool.accCHIMPPerShare.add(\n            chimpReward.mul(1e12).div(lpSupply)\n        );\n        pool.lastRewardBlock = block.number;\n    }\n\n    // Deposit LP tokens to MasterChef for CHIMP allocation.\n    function deposit(uint256 _pid, uint256 _amount) public {\n        PoolInfo storage pool = poolInfo[_pid];\n        UserInfo storage user = userInfo[_pid][msg.sender];\n        updatePool(_pid);\n        if (user.amount > 0) {\n            uint256 pending = user\n                .amount\n                .mul(pool.accCHIMPPerShare)\n                .div(1e12)\n                .sub(user.rewardDebt);\n            if (pending > 0) {\n                safeCHIMPTransfer(msg.sender, pending);\n            }\n        }\n        if (_amount > 0) {\n            uint256 preBal = pool.lpToken.balanceOf(address(this)); // safe deflationary tokens\n            pool.lpToken.safeTransferFrom(\n                address(msg.sender),\n                address(this),\n                _amount\n            );\n            uint256 afterBal = pool.lpToken.balanceOf(address(this)); // safe deflationary tokens\n            _amount = afterBal.sub(preBal);\n\n            if (pool.depositFeeBP > 0) {\n                uint256 depositFee = _amount.mul(pool.depositFeeBP).div(10000);\n                pool.lpToken.safeTransfer(feeAddress, depositFee);\n                user.amount = user.amount.add(_amount).sub(depositFee);\n                pool.tvl += _amount.sub(depositFee);\n            } else {\n                user.amount = user.amount.add(_amount);\n                pool.tvl += _amount;\n            }\n        }\n        user.rewardDebt = user.amount.mul(pool.accCHIMPPerShare).div(1e12);\n        emit Deposit(msg.sender, _pid, _amount);\n    }\n\n    // Withdraw LP tokens from MasterChef.\n    function withdraw(uint256 _pid, uint256 _amount) public {\n        PoolInfo storage pool = poolInfo[_pid];\n        UserInfo storage user = userInfo[_pid][msg.sender];\n        require(user.amount >= _amount, \"withdraw: not good\");\n        updatePool(_pid);\n        uint256 pending = user.amount.mul(pool.accCHIMPPerShare).div(1e12).sub(\n            user.rewardDebt\n        );\n        if (pending > 0) {\n            safeCHIMPTransfer(msg.sender, pending);\n        }\n        if (_amount > 0) {\n            user.amount = user.amount.sub(_amount);\n            pool.tvl -= _amount;\n            pool.lpToken.safeTransfer(address(msg.sender), _amount);\n        }\n\n        user.rewardDebt = user.amount.mul(pool.accCHIMPPerShare).div(1e12);\n        emit Withdraw(msg.sender, _pid, _amount);\n    }\n\n    // Withdraw without caring about rewards. EMERGENCY ONLY.\n\n    function emergencyWithdraw(uint256 _pid) public {\n        PoolInfo storage pool = poolInfo[_pid];\n        UserInfo storage user = userInfo[_pid][msg.sender];\n        uint256 amount = user.amount;\n        user.amount = 0;\n        user.rewardDebt = 0;\n        pool.tvl -= amount;\n\n        pool.lpToken.safeTransfer(address(msg.sender), amount);\n        emit EmergencyWithdraw(msg.sender, _pid, amount);\n    }\n\n    // Safe chimp transfer function, just in case if rounding error causes pool to not have enough CHIMPs.\n    function safeCHIMPTransfer(address _to, uint256 _amount) internal {\n        uint256 chimpBal = chimp.balanceOf(address(this));\n        if (_amount > chimpBal) {\n            chimp.transfer(_to, chimpBal);\n        } else {\n            chimp.transfer(_to, _amount);\n        }\n    }\n\n    function refillCHIMP(address _to, uint256 _amount) internal {\n        chimpStakingReserve.withdrawCHIMP(_to, _amount);\n        totalRewardPaid = totalRewardPaid.add(_amount);\n    }\n\n    \n    function setFeeAddress(address _feeAddress) public {\n        require(msg.sender == feeAddress, \"setFeeAddress: FORBIDDEN\");\n        feeAddress = _feeAddress;\n    }\n\n    //Pancake has to add hidden dummy pools inorder to alter the emission, here we make it simple and transparent to all.\n    function updateEmissionRate(uint256 _chimpPerBlock) public onlyOwner {\n        massUpdatePools();\n        chimpPerBlock = _chimpPerBlock;\n    }\n}\n",
  "sourcePath": "/Users/shahzeb/Desktop/projects/clients/leon/chimpdao/contracts/contracts/Staking/MasterChef.sol",
  "compiler": {
    "name": "solc",
    "version": "0.8.13+commit.abaa5c0e.Emscripten.clang"
  },
  "schemaVersion": "3.4.6",
  "updatedAt": "2022-08-20T20:47:50.374Z",
  "networkType": "ethereum",
  "devdoc": {
    "kind": "dev",
    "methods": {
      "owner()": {
        "details": "Returns the address of the current owner."
      },
      "renounceOwnership()": {
        "details": "Leaves the contract without owner. It will not be possible to call `onlyOwner` functions anymore. Can only be called by the current owner. NOTE: Renouncing ownership will leave the contract without an owner, thereby removing any functionality that is only available to the owner."
      },
      "transferOwnership(address)": {
        "details": "Transfers ownership of the contract to a new account (`newOwner`). Can only be called by the current owner."
      }
    },
    "version": 1
  },
  "userdoc": {
    "kind": "user",
    "methods": {},
    "version": 1
  }
}