{
  "contractName": "ChimpAuction",
  "abi": [
    {
      "anonymous": false,
      "inputs": [
        {
          "indexed": true,
          "internalType": "address",
          "name": "previousOwner",
          "type": "address"
        },
        {
          "indexed": true,
          "internalType": "address",
          "name": "newOwner",
          "type": "address"
        }
      ],
      "name": "OwnershipTransferred",
      "type": "event"
    },
    {
      "anonymous": false,
      "inputs": [
        {
          "indexed": false,
          "internalType": "uint256",
          "name": "",
          "type": "uint256"
        }
      ],
      "name": "onBidPlaced",
      "type": "event"
    },
    {
      "anonymous": false,
      "inputs": [
        {
          "indexed": false,
          "internalType": "uint256",
          "name": "",
          "type": "uint256"
        }
      ],
      "name": "onRefundClaimed",
      "type": "event"
    },
    {
      "inputs": [
        {
          "internalType": "address",
          "name": "",
          "type": "address"
        }
      ],
      "name": "bids",
      "outputs": [
        {
          "internalType": "uint256",
          "name": "",
          "type": "uint256"
        }
      ],
      "stateMutability": "view",
      "type": "function",
      "constant": true
    },
    {
      "inputs": [],
      "name": "isAuctionEnabled",
      "outputs": [
        {
          "internalType": "bool",
          "name": "",
          "type": "bool"
        }
      ],
      "stateMutability": "view",
      "type": "function",
      "constant": true
    },
    {
      "inputs": [],
      "name": "isClaimRefundEnabled",
      "outputs": [
        {
          "internalType": "bool",
          "name": "",
          "type": "bool"
        }
      ],
      "stateMutability": "view",
      "type": "function",
      "constant": true
    },
    {
      "inputs": [],
      "name": "minBidAmount",
      "outputs": [
        {
          "internalType": "uint256",
          "name": "",
          "type": "uint256"
        }
      ],
      "stateMutability": "view",
      "type": "function",
      "constant": true
    },
    {
      "inputs": [],
      "name": "owner",
      "outputs": [
        {
          "internalType": "address",
          "name": "",
          "type": "address"
        }
      ],
      "stateMutability": "view",
      "type": "function",
      "constant": true
    },
    {
      "inputs": [
        {
          "internalType": "address",
          "name": "",
          "type": "address"
        }
      ],
      "name": "refundClaimed",
      "outputs": [
        {
          "internalType": "bool",
          "name": "",
          "type": "bool"
        }
      ],
      "stateMutability": "view",
      "type": "function",
      "constant": true
    },
    {
      "inputs": [],
      "name": "refundMerkleRoot",
      "outputs": [
        {
          "internalType": "bytes32",
          "name": "",
          "type": "bytes32"
        }
      ],
      "stateMutability": "view",
      "type": "function",
      "constant": true
    },
    {
      "inputs": [],
      "name": "renounceOwnership",
      "outputs": [],
      "stateMutability": "nonpayable",
      "type": "function"
    },
    {
      "inputs": [],
      "name": "totalBidders",
      "outputs": [
        {
          "internalType": "uint256",
          "name": "",
          "type": "uint256"
        }
      ],
      "stateMutability": "view",
      "type": "function",
      "constant": true
    },
    {
      "inputs": [],
      "name": "totalBids",
      "outputs": [
        {
          "internalType": "uint256",
          "name": "",
          "type": "uint256"
        }
      ],
      "stateMutability": "view",
      "type": "function",
      "constant": true
    },
    {
      "inputs": [
        {
          "internalType": "address",
          "name": "newOwner",
          "type": "address"
        }
      ],
      "name": "transferOwnership",
      "outputs": [],
      "stateMutability": "nonpayable",
      "type": "function"
    },
    {
      "inputs": [],
      "name": "flipAuctionState",
      "outputs": [],
      "stateMutability": "nonpayable",
      "type": "function"
    },
    {
      "inputs": [],
      "name": "flipClaimRefund",
      "outputs": [],
      "stateMutability": "nonpayable",
      "type": "function"
    },
    {
      "inputs": [
        {
          "internalType": "uint256",
          "name": "amount",
          "type": "uint256"
        }
      ],
      "name": "setMinBidAmount",
      "outputs": [],
      "stateMutability": "nonpayable",
      "type": "function"
    },
    {
      "inputs": [],
      "name": "placeBid",
      "outputs": [],
      "stateMutability": "payable",
      "type": "function",
      "payable": true
    },
    {
      "inputs": [
        {
          "internalType": "uint256",
          "name": "amount",
          "type": "uint256"
        }
      ],
      "name": "withdrawETH",
      "outputs": [],
      "stateMutability": "nonpayable",
      "type": "function"
    },
    {
      "inputs": [
        {
          "internalType": "bytes32",
          "name": "root",
          "type": "bytes32"
        }
      ],
      "name": "setRefundMerkleRoot",
      "outputs": [],
      "stateMutability": "nonpayable",
      "type": "function"
    },
    {
      "inputs": [
        {
          "internalType": "address",
          "name": "addr",
          "type": "address"
        },
        {
          "internalType": "bytes32[]",
          "name": "_merkleProof",
          "type": "bytes32[]"
        }
      ],
      "name": "isQualifiedForRefund",
      "outputs": [
        {
          "internalType": "bool",
          "name": "",
          "type": "bool"
        }
      ],
      "stateMutability": "view",
      "type": "function",
      "constant": true
    },
    {
      "inputs": [
        {
          "internalType": "bytes32[]",
          "name": "_merkleProof",
          "type": "bytes32[]"
        }
      ],
      "name": "claimRefund",
      "outputs": [],
      "stateMutability": "nonpayable",
      "type": "function"
    }
  ],
  "bytecode": "0x608060405234801561001057600080fd5b5061002d61002261003260201b60201c565b61003a60201b60201c565b6100fe565b600033905090565b60008060009054906101000a900473ffffffffffffffffffffffffffffffffffffffff169050816000806101000a81548173ffffffffffffffffffffffffffffffffffffffff021916908373ffffffffffffffffffffffffffffffffffffffff1602179055508173ffffffffffffffffffffffffffffffffffffffff168173ffffffffffffffffffffffffffffffffffffffff167f8be0079c531659141344cd1fd0a4f28419497f9722a3daafe3b4186f6b6457e060405160405180910390a35050565b61175d8061010d6000396000f3fe6080604052600436106101145760003560e01c80638da5cb5b116100a0578063ea4f8a3f11610064578063ea4f8a3f1461037b578063ecfc7ecc146103a6578063ee73c473146103b0578063f14210a6146103c7578063f2fde38b146103f057610114565b80638da5cb5b14610294578063b557478a146102bf578063b7054007146102fc578063de71bf0714610325578063df6905091461035057610114565b806349751788116100e757806349751788146101c157806362ea82db146101ec5780636e16260414610229578063715018a6146102525780638b0341361461026957610114565b80632e0bea471461011957806338093cd214610144578063380eb6cd14610181578063417fd6b614610198575b600080fd5b34801561012557600080fd5b5061012e610419565b60405161013b9190610f4b565b60405180910390f35b34801561015057600080fd5b5061016b60048036038101906101669190611033565b61042c565b6040516101789190610f4b565b60405180910390f35b34801561018d57600080fd5b506101966104b0565b005b3480156101a457600080fd5b506101bf60048036038101906101ba91906110c9565b610558565b005b3480156101cd57600080fd5b506101d66105de565b6040516101e39190611105565b60405180910390f35b3480156101f857600080fd5b50610213600480360381019061020e9190611120565b6105e4565b6040516102209190611105565b60405180910390f35b34801561023557600080fd5b50610250600480360381019061024b919061114d565b6105fc565b005b34801561025e57600080fd5b50610267610841565b005b34801561027557600080fd5b5061027e6108c9565b60405161028b9190611105565b60405180910390f35b3480156102a057600080fd5b506102a96108cf565b6040516102b691906111a9565b60405180910390f35b3480156102cb57600080fd5b506102e660048036038101906102e19190611120565b6108f8565b6040516102f39190610f4b565b60405180910390f35b34801561030857600080fd5b50610323600480360381019061031e91906111fa565b610918565b005b34801561033157600080fd5b5061033a61099e565b6040516103479190611105565b60405180910390f35b34801561035c57600080fd5b506103656109a4565b6040516103729190611236565b60405180910390f35b34801561038757600080fd5b506103906109aa565b60405161039d9190610f4b565b60405180910390f35b6103ae6109bd565b005b3480156103bc57600080fd5b506103c5610b5c565b005b3480156103d357600080fd5b506103ee60048036038101906103e991906110c9565b610c04565b005b3480156103fc57600080fd5b5061041760048036038101906104129190611120565b610cca565b005b600060149054906101000a900460ff1681565b600080846040516020016104409190611299565b6040516020818303038152906040528051906020012090506104a6848480806020026020016040519081016040528093929190818152602001838360200280828437600081840152601f19601f8201169050808301925050505050505060025483610dc1565b9150509392505050565b6104b8610dd8565b73ffffffffffffffffffffffffffffffffffffffff166104d66108cf565b73ffffffffffffffffffffffffffffffffffffffff161461052c576040517f08c379a000000000000000000000000000000000000000000000000000000000815260040161052390611311565b60405180910390fd5b600060159054906101000a900460ff1615600060156101000a81548160ff021916908315150217905550565b610560610dd8565b73ffffffffffffffffffffffffffffffffffffffff1661057e6108cf565b73ffffffffffffffffffffffffffffffffffffffff16146105d4576040517f08c379a00000000000000000000000000000000000000000000000000000000081526004016105cb90611311565b60405180910390fd5b8060018190555050565b60015481565b60046020528060005260406000206000915090505481565b600060159054906101000a900460ff1661064b576040517f08c379a00000000000000000000000000000000000000000000000000000000081526004016106429061137d565b60405180910390fd5b61065633838361042c565b610695576040517f08c379a000000000000000000000000000000000000000000000000000000000815260040161068c906113e9565b60405180910390fd5b600560003373ffffffffffffffffffffffffffffffffffffffff1673ffffffffffffffffffffffffffffffffffffffff16815260200190815260200160002060009054906101000a900460ff1615610722576040517f08c379a00000000000000000000000000000000000000000000000000000000081526004016107199061147b565b60405180910390fd5b6001600560003373ffffffffffffffffffffffffffffffffffffffff1673ffffffffffffffffffffffffffffffffffffffff16815260200190815260200160002060006101000a81548160ff0219169083151502179055506000600460003373ffffffffffffffffffffffffffffffffffffffff1673ffffffffffffffffffffffffffffffffffffffff1681526020019081526020016000205490503373ffffffffffffffffffffffffffffffffffffffff166108fc829081150290604051600060405180830381858888f19350505050158015610804573d6000803e3d6000fd5b507f0a1b8464236af9025c91d75512a798b39882ae79c357aedd613211f019e34b43816040516108349190611105565b60405180910390a1505050565b610849610dd8565b73ffffffffffffffffffffffffffffffffffffffff166108676108cf565b73ffffffffffffffffffffffffffffffffffffffff16146108bd576040517f08c379a00000000000000000000000000000000000000000000000000000000081526004016108b490611311565b60405180910390fd5b6108c76000610de0565b565b60065481565b60008060009054906101000a900473ffffffffffffffffffffffffffffffffffffffff16905090565b60056020528060005260406000206000915054906101000a900460ff1681565b610920610dd8565b73ffffffffffffffffffffffffffffffffffffffff1661093e6108cf565b73ffffffffffffffffffffffffffffffffffffffff1614610994576040517f08c379a000000000000000000000000000000000000000000000000000000000815260040161098b90611311565b60405180910390fd5b8060028190555050565b60035481565b60025481565b600060159054906101000a900460ff1681565b600154341015610a02576040517f08c379a00000000000000000000000000000000000000000000000000000000081526004016109f99061150d565b60405180910390fd5b600060149054906101000a900460ff16610a51576040517f08c379a0000000000000000000000000000000000000000000000000000000008152600401610a4890611579565b60405180910390fd5b600160066000828254610a6491906115c8565b925050819055506000600460003373ffffffffffffffffffffffffffffffffffffffff1673ffffffffffffffffffffffffffffffffffffffff1681526020019081526020016000205403610acd57600160036000828254610ac591906115c8565b925050819055505b34600460003373ffffffffffffffffffffffffffffffffffffffff1673ffffffffffffffffffffffffffffffffffffffff1681526020019081526020016000206000828254610b1c91906115c8565b925050819055507fa2987625a35f94b2e9a6ed8aba881d592cccf8c34e367c5bf99d665dd5a325ea34604051610b529190611105565b60405180910390a1565b610b64610dd8565b73ffffffffffffffffffffffffffffffffffffffff16610b826108cf565b73ffffffffffffffffffffffffffffffffffffffff1614610bd8576040517f08c379a0000000000000000000000000000000000000000000000000000000008152600401610bcf90611311565b60405180910390fd5b600060149054906101000a900460ff1615600060146101000a81548160ff021916908315150217905550565b610c0c610dd8565b73ffffffffffffffffffffffffffffffffffffffff16610c2a6108cf565b73ffffffffffffffffffffffffffffffffffffffff1614610c80576040517f08c379a0000000000000000000000000000000000000000000000000000000008152600401610c7790611311565b60405180910390fd5b3373ffffffffffffffffffffffffffffffffffffffff166108fc829081150290604051600060405180830381858888f19350505050158015610cc6573d6000803e3d6000fd5b5050565b610cd2610dd8565b73ffffffffffffffffffffffffffffffffffffffff16610cf06108cf565b73ffffffffffffffffffffffffffffffffffffffff1614610d46576040517f08c379a0000000000000000000000000000000000000000000000000000000008152600401610d3d90611311565b60405180910390fd5b600073ffffffffffffffffffffffffffffffffffffffff168173ffffffffffffffffffffffffffffffffffffffff1603610db5576040517f08c379a0000000000000000000000000000000000000000000000000000000008152600401610dac90611690565b60405180910390fd5b610dbe81610de0565b50565b600082610dce8584610ea4565b1490509392505050565b600033905090565b60008060009054906101000a900473ffffffffffffffffffffffffffffffffffffffff169050816000806101000a81548173ffffffffffffffffffffffffffffffffffffffff021916908373ffffffffffffffffffffffffffffffffffffffff1602179055508173ffffffffffffffffffffffffffffffffffffffff168173ffffffffffffffffffffffffffffffffffffffff167f8be0079c531659141344cd1fd0a4f28419497f9722a3daafe3b4186f6b6457e060405160405180910390a35050565b60008082905060005b8451811015610f0e576000858281518110610ecb57610eca6116b0565b5b60200260200101519050808311610eed57610ee68382610f19565b9250610efa565b610ef78184610f19565b92505b508080610f06906116df565b915050610ead565b508091505092915050565b600082600052816020526040600020905092915050565b60008115159050919050565b610f4581610f30565b82525050565b6000602082019050610f606000830184610f3c565b92915050565b600080fd5b600080fd5b600073ffffffffffffffffffffffffffffffffffffffff82169050919050565b6000610f9b82610f70565b9050919050565b610fab81610f90565b8114610fb657600080fd5b50565b600081359050610fc881610fa2565b92915050565b600080fd5b600080fd5b600080fd5b60008083601f840112610ff357610ff2610fce565b5b8235905067ffffffffffffffff8111156110105761100f610fd3565b5b60208301915083602082028301111561102c5761102b610fd8565b5b9250929050565b60008060006040848603121561104c5761104b610f66565b5b600061105a86828701610fb9565b935050602084013567ffffffffffffffff81111561107b5761107a610f6b565b5b61108786828701610fdd565b92509250509250925092565b6000819050919050565b6110a681611093565b81146110b157600080fd5b50565b6000813590506110c38161109d565b92915050565b6000602082840312156110df576110de610f66565b5b60006110ed848285016110b4565b91505092915050565b6110ff81611093565b82525050565b600060208201905061111a60008301846110f6565b92915050565b60006020828403121561113657611135610f66565b5b600061114484828501610fb9565b91505092915050565b6000806020838503121561116457611163610f66565b5b600083013567ffffffffffffffff81111561118257611181610f6b565b5b61118e85828601610fdd565b92509250509250929050565b6111a381610f90565b82525050565b60006020820190506111be600083018461119a565b92915050565b6000819050919050565b6111d7816111c4565b81146111e257600080fd5b50565b6000813590506111f4816111ce565b92915050565b6000602082840312156112105761120f610f66565b5b600061121e848285016111e5565b91505092915050565b611230816111c4565b82525050565b600060208201905061124b6000830184611227565b92915050565b60008160601b9050919050565b600061126982611251565b9050919050565b600061127b8261125e565b9050919050565b61129361128e82610f90565b611270565b82525050565b60006112a58284611282565b60148201915081905092915050565b600082825260208201905092915050565b7f4f776e61626c653a2063616c6c6572206973206e6f7420746865206f776e6572600082015250565b60006112fb6020836112b4565b9150611306826112c5565b602082019050919050565b6000602082019050818103600083015261132a816112ee565b9050919050565b7f526566756e6420436c61696d206e6f7420656e61626c65640000000000000000600082015250565b60006113676018836112b4565b915061137282611331565b602082019050919050565b600060208201905081810360008301526113968161135a565b9050919050565b7f596f7520617265206e6f742077686974656c6973746564000000000000000000600082015250565b60006113d36017836112b4565b91506113de8261139d565b602082019050919050565b60006020820190508181036000830152611402816113c6565b9050919050565b7f596f75206861766520616c726561647920636c61696d656420796f757220726560008201527f66756e6400000000000000000000000000000000000000000000000000000000602082015250565b60006114656024836112b4565b915061147082611409565b604082019050919050565b6000602082019050818103600083015261149481611458565b9050919050565b7f506c61636520626964206d6f7265207468616e206d696e696d756d206269642060008201527f616d6f756e740000000000000000000000000000000000000000000000000000602082015250565b60006114f76026836112b4565b91506115028261149b565b604082019050919050565b60006020820190508181036000830152611526816114ea565b9050919050565b7f42696420506c6163656d656e74206e6f7420656e61626c656400000000000000600082015250565b60006115636019836112b4565b915061156e8261152d565b602082019050919050565b6000602082019050818103600083015261159281611556565b9050919050565b7f4e487b7100000000000000000000000000000000000000000000000000000000600052601160045260246000fd5b60006115d382611093565b91506115de83611093565b9250827fffffffffffffffffffffffffffffffffffffffffffffffffffffffffffffffff0382111561161357611612611599565b5b828201905092915050565b7f4f776e61626c653a206e6577206f776e657220697320746865207a65726f206160008201527f6464726573730000000000000000000000000000000000000000000000000000602082015250565b600061167a6026836112b4565b91506116858261161e565b604082019050919050565b600060208201905081810360008301526116a98161166d565b9050919050565b7f4e487b7100000000000000000000000000000000000000000000000000000000600052603260045260246000fd5b60006116ea82611093565b91507fffffffffffffffffffffffffffffffffffffffffffffffffffffffffffffffff820361171c5761171b611599565b5b60018201905091905056fea264697066735822122071bbef931b4bd14a43bf7b932d923711f8fdd2b1b08606443ed155cc7b7f70a864736f6c634300080d0033",
  "immutableReferences": {},
  "source": "// SPDX-License-Identifier: MIT\npragma solidity ^0.8.0;\n\nimport \"@openzeppelin/contracts/access/Ownable.sol\";\nimport \"@openzeppelin/contracts/utils/cryptography/MerkleProof.sol\";\n\ncontract ChimpAuction is Ownable {\n    \n    bool public isAuctionEnabled ;\n    bool public isClaimRefundEnabled;\n    uint256 public minBidAmount;\n    bytes32 public refundMerkleRoot;\n\n    uint256 public totalBidders;\n\n    mapping(address => uint256) public bids;\n    mapping(address => bool) public refundClaimed;\n\n    uint256 public totalBids;\n\n    event onBidPlaced(uint256);\n    event onRefundClaimed(uint256);\n\n    function flipAuctionState() public onlyOwner {\n        isAuctionEnabled = !isAuctionEnabled;\n    }\n\n    function flipClaimRefund() public onlyOwner {\n        isClaimRefundEnabled = !isClaimRefundEnabled;\n    }\n\n    function setMinBidAmount(uint256 amount) public onlyOwner {\n        minBidAmount = amount;\n    }\n\n    function placeBid() public payable {\n        require(\n            msg.value >= minBidAmount,\n            \"Place bid more than minimum bid amount\"\n        );\n        require(isAuctionEnabled, \"Bid Placement not enabled\");\n        totalBids += 1;\n        if(bids[msg.sender]==0){\n            totalBidders +=1;\n        }\n      \n        bids[msg.sender] += msg.value;\n        emit onBidPlaced(msg.value);\n    }\n\n    function withdrawETH(uint256 amount) public onlyOwner {\n        payable(msg.sender).transfer(amount);\n    }\n\n    function setRefundMerkleRoot(bytes32 root) public onlyOwner {\n        refundMerkleRoot = root;\n    }\n\n    function isQualifiedForRefund(address addr, bytes32[] calldata _merkleProof)\n        public\n        view\n        returns (bool)\n    {\n        bytes32 leaf = keccak256(abi.encodePacked(addr));\n        return MerkleProof.verify(_merkleProof, refundMerkleRoot, leaf);\n    }\n\n    function claimRefund(bytes32[] calldata _merkleProof) public {\n        require(isClaimRefundEnabled, \"Refund Claim not enabled\");\n\n        require(\n            isQualifiedForRefund(msg.sender, _merkleProof),\n            \"You are not whitelisted\"\n        );\n\n        require(\n            !refundClaimed[msg.sender],\n            \"You have already claimed your refund\"\n        );\n\n        refundClaimed[msg.sender] = true;\n        uint256 amount = bids[msg.sender];\n        payable(msg.sender).transfer(amount);\n        emit onRefundClaimed(amount);\n    }\n}\n",
  "sourcePath": "/Users/shahzeb/Desktop/projects/clients/leon/chimpdao/contracts/contracts/Auction/ChimpAuction.sol",
  "compiler": {
    "name": "solc",
    "version": "0.8.13+commit.abaa5c0e.Emscripten.clang"
  },
  "schemaVersion": "3.4.6",
  "updatedAt": "2022-08-20T20:47:50.314Z",
  "networkType": "ethereum",
  "devdoc": {
    "kind": "dev",
    "methods": {
      "owner()": {
        "details": "Returns the address of the current owner."
      },
      "renounceOwnership()": {
        "details": "Leaves the contract without owner. It will not be possible to call `onlyOwner` functions anymore. Can only be called by the current owner. NOTE: Renouncing ownership will leave the contract without an owner, thereby removing any functionality that is only available to the owner."
      },
      "transferOwnership(address)": {
        "details": "Transfers ownership of the contract to a new account (`newOwner`). Can only be called by the current owner."
      }
    },
    "version": 1
  },
  "userdoc": {
    "kind": "user",
    "methods": {},
    "version": 1
  }
}