{
  "contractName": "ChimpAuction",
  "abi": [
    {
      "anonymous": false,
      "inputs": [
        {
          "indexed": true,
          "internalType": "address",
          "name": "previousOwner",
          "type": "address"
        },
        {
          "indexed": true,
          "internalType": "address",
          "name": "newOwner",
          "type": "address"
        }
      ],
      "name": "OwnershipTransferred",
      "type": "event"
    },
    {
      "anonymous": false,
      "inputs": [
        {
          "indexed": false,
          "internalType": "uint256",
          "name": "",
          "type": "uint256"
        }
      ],
      "name": "onBidPlaces",
      "type": "event"
    },
    {
      "anonymous": false,
      "inputs": [
        {
          "indexed": false,
          "internalType": "uint256",
          "name": "",
          "type": "uint256"
        }
      ],
      "name": "onRefundClaimed",
      "type": "event"
    },
    {
      "inputs": [
        {
          "internalType": "address",
          "name": "",
          "type": "address"
        }
      ],
      "name": "bids",
      "outputs": [
        {
          "internalType": "uint256",
          "name": "",
          "type": "uint256"
        }
      ],
      "stateMutability": "view",
      "type": "function"
    },
    {
      "inputs": [],
      "name": "isAuctionEnabled",
      "outputs": [
        {
          "internalType": "bool",
          "name": "",
          "type": "bool"
        }
      ],
      "stateMutability": "view",
      "type": "function"
    },
    {
      "inputs": [],
      "name": "isClaimRefundEnabled",
      "outputs": [
        {
          "internalType": "bool",
          "name": "",
          "type": "bool"
        }
      ],
      "stateMutability": "view",
      "type": "function"
    },
    {
      "inputs": [],
      "name": "minBidAmount",
      "outputs": [
        {
          "internalType": "uint256",
          "name": "",
          "type": "uint256"
        }
      ],
      "stateMutability": "view",
      "type": "function"
    },
    {
      "inputs": [],
      "name": "owner",
      "outputs": [
        {
          "internalType": "address",
          "name": "",
          "type": "address"
        }
      ],
      "stateMutability": "view",
      "type": "function"
    },
    {
      "inputs": [
        {
          "internalType": "address",
          "name": "",
          "type": "address"
        }
      ],
      "name": "refundClaimed",
      "outputs": [
        {
          "internalType": "bool",
          "name": "",
          "type": "bool"
        }
      ],
      "stateMutability": "view",
      "type": "function"
    },
    {
      "inputs": [],
      "name": "refundMerkleRoot",
      "outputs": [
        {
          "internalType": "bytes32",
          "name": "",
          "type": "bytes32"
        }
      ],
      "stateMutability": "view",
      "type": "function"
    },
    {
      "inputs": [],
      "name": "renounceOwnership",
      "outputs": [],
      "stateMutability": "nonpayable",
      "type": "function"
    },
    {
      "inputs": [],
      "name": "totalBids",
      "outputs": [
        {
          "internalType": "uint256",
          "name": "",
          "type": "uint256"
        }
      ],
      "stateMutability": "view",
      "type": "function"
    },
    {
      "inputs": [
        {
          "internalType": "address",
          "name": "newOwner",
          "type": "address"
        }
      ],
      "name": "transferOwnership",
      "outputs": [],
      "stateMutability": "nonpayable",
      "type": "function"
    },
    {
      "inputs": [],
      "name": "flipAuctionState",
      "outputs": [],
      "stateMutability": "nonpayable",
      "type": "function"
    },
    {
      "inputs": [],
      "name": "flipClaimRefundEnabled",
      "outputs": [],
      "stateMutability": "nonpayable",
      "type": "function"
    },
    {
      "inputs": [
        {
          "internalType": "uint256",
          "name": "amount",
          "type": "uint256"
        }
      ],
      "name": "setMinBidAmount",
      "outputs": [],
      "stateMutability": "nonpayable",
      "type": "function"
    },
    {
      "inputs": [],
      "name": "placeBid",
      "outputs": [],
      "stateMutability": "payable",
      "type": "function"
    },
    {
      "inputs": [
        {
          "internalType": "uint256",
          "name": "amount",
          "type": "uint256"
        }
      ],
      "name": "withdrawETH",
      "outputs": [],
      "stateMutability": "nonpayable",
      "type": "function"
    },
    {
      "inputs": [
        {
          "internalType": "bytes32",
          "name": "root",
          "type": "bytes32"
        }
      ],
      "name": "setRefundMerkleRoot",
      "outputs": [],
      "stateMutability": "nonpayable",
      "type": "function"
    },
    {
      "inputs": [
        {
          "internalType": "address",
          "name": "addr",
          "type": "address"
        },
        {
          "internalType": "bytes32[]",
          "name": "_merkleProof",
          "type": "bytes32[]"
        }
      ],
      "name": "isQualifiedForRefund",
      "outputs": [
        {
          "internalType": "bool",
          "name": "",
          "type": "bool"
        }
      ],
      "stateMutability": "view",
      "type": "function"
    },
    {
      "inputs": [
        {
          "internalType": "bytes32[]",
          "name": "_merkleProof",
          "type": "bytes32[]"
        }
      ],
      "name": "claimRefund",
      "outputs": [],
      "stateMutability": "nonpayable",
      "type": "function"
    }
  ],
  "bytecode": "0x608060405234801561001057600080fd5b5061002d61002261003260201b60201c565b61003a60201b60201c565b6100fe565b600033905090565b60008060009054906101000a900473ffffffffffffffffffffffffffffffffffffffff169050816000806101000a81548173ffffffffffffffffffffffffffffffffffffffff021916908373ffffffffffffffffffffffffffffffffffffffff1602179055508173ffffffffffffffffffffffffffffffffffffffff168173ffffffffffffffffffffffffffffffffffffffff167f8be0079c531659141344cd1fd0a4f28419497f9722a3daafe3b4186f6b6457e060405160405180910390a35050565b6116bf8061010d6000396000f3fe6080604052600436106101095760003560e01c80638da5cb5b11610095578063ea4f8a3f11610064578063ea4f8a3f14610345578063ecfc7ecc14610370578063ee73c4731461037a578063f14210a614610391578063f2fde38b146103ba57610109565b80638da5cb5b14610289578063b557478a146102b4578063b7054007146102f1578063df6905091461031a57610109565b80634cc7adad116100dc5780634cc7adad146101ca57806362ea82db146101e15780636e1626041461021e578063715018a6146102475780638b0341361461025e57610109565b80632e0bea471461010e57806338093cd214610139578063417fd6b614610176578063497517881461019f575b600080fd5b34801561011a57600080fd5b506101236103e3565b6040516101309190610ead565b60405180910390f35b34801561014557600080fd5b50610160600480360381019061015b9190610f95565b6103f6565b60405161016d9190610ead565b60405180910390f35b34801561018257600080fd5b5061019d6004803603810190610198919061102b565b61047a565b005b3480156101ab57600080fd5b506101b4610500565b6040516101c19190611067565b60405180910390f35b3480156101d657600080fd5b506101df610506565b005b3480156101ed57600080fd5b5061020860048036038101906102039190611082565b6105ae565b6040516102159190611067565b60405180910390f35b34801561022a57600080fd5b50610245600480360381019061024091906110af565b6105c6565b005b34801561025357600080fd5b5061025c61080b565b005b34801561026a57600080fd5b50610273610893565b6040516102809190611067565b60405180910390f35b34801561029557600080fd5b5061029e610899565b6040516102ab919061110b565b60405180910390f35b3480156102c057600080fd5b506102db60048036038101906102d69190611082565b6108c2565b6040516102e89190610ead565b60405180910390f35b3480156102fd57600080fd5b506103186004803603810190610313919061115c565b6108e2565b005b34801561032657600080fd5b5061032f610968565b60405161033c9190611198565b60405180910390f35b34801561035157600080fd5b5061035a61096e565b6040516103679190610ead565b60405180910390f35b610378610981565b005b34801561038657600080fd5b5061038f610abe565b005b34801561039d57600080fd5b506103b860048036038101906103b3919061102b565b610b66565b005b3480156103c657600080fd5b506103e160048036038101906103dc9190611082565b610c2c565b005b600060149054906101000a900460ff1681565b6000808460405160200161040a91906111fb565b604051602081830303815290604052805190602001209050610470848480806020026020016040519081016040528093929190818152602001838360200280828437600081840152601f19601f8201169050808301925050505050505060025483610d23565b9150509392505050565b610482610d3a565b73ffffffffffffffffffffffffffffffffffffffff166104a0610899565b73ffffffffffffffffffffffffffffffffffffffff16146104f6576040517f08c379a00000000000000000000000000000000000000000000000000000000081526004016104ed90611273565b60405180910390fd5b8060018190555050565b60015481565b61050e610d3a565b73ffffffffffffffffffffffffffffffffffffffff1661052c610899565b73ffffffffffffffffffffffffffffffffffffffff1614610582576040517f08c379a000000000000000000000000000000000000000000000000000000000815260040161057990611273565b60405180910390fd5b600060159054906101000a900460ff1615600060156101000a81548160ff021916908315150217905550565b60036020528060005260406000206000915090505481565b600060159054906101000a900460ff16610615576040517f08c379a000000000000000000000000000000000000000000000000000000000815260040161060c906112df565b60405180910390fd5b6106203383836103f6565b61065f576040517f08c379a00000000000000000000000000000000000000000000000000000000081526004016106569061134b565b60405180910390fd5b600460003373ffffffffffffffffffffffffffffffffffffffff1673ffffffffffffffffffffffffffffffffffffffff16815260200190815260200160002060009054906101000a900460ff16156106ec576040517f08c379a00000000000000000000000000000000000000000000000000000000081526004016106e3906113dd565b60405180910390fd5b6001600460003373ffffffffffffffffffffffffffffffffffffffff1673ffffffffffffffffffffffffffffffffffffffff16815260200190815260200160002060006101000a81548160ff0219169083151502179055506000600360003373ffffffffffffffffffffffffffffffffffffffff1673ffffffffffffffffffffffffffffffffffffffff1681526020019081526020016000205490503373ffffffffffffffffffffffffffffffffffffffff166108fc829081150290604051600060405180830381858888f193505050501580156107ce573d6000803e3d6000fd5b507f0a1b8464236af9025c91d75512a798b39882ae79c357aedd613211f019e34b43816040516107fe9190611067565b60405180910390a1505050565b610813610d3a565b73ffffffffffffffffffffffffffffffffffffffff16610831610899565b73ffffffffffffffffffffffffffffffffffffffff1614610887576040517f08c379a000000000000000000000000000000000000000000000000000000000815260040161087e90611273565b60405180910390fd5b6108916000610d42565b565b60055481565b60008060009054906101000a900473ffffffffffffffffffffffffffffffffffffffff16905090565b60046020528060005260406000206000915054906101000a900460ff1681565b6108ea610d3a565b73ffffffffffffffffffffffffffffffffffffffff16610908610899565b73ffffffffffffffffffffffffffffffffffffffff161461095e576040517f08c379a000000000000000000000000000000000000000000000000000000000815260040161095590611273565b60405180910390fd5b8060028190555050565b60025481565b600060159054906101000a900460ff1681565b6001543410156109c6576040517f08c379a00000000000000000000000000000000000000000000000000000000081526004016109bd9061146f565b60405180910390fd5b600060149054906101000a900460ff16610a15576040517f08c379a0000000000000000000000000000000000000000000000000000000008152600401610a0c906114db565b60405180910390fd5b600160056000828254610a28919061152a565b9250508190555034600360003373ffffffffffffffffffffffffffffffffffffffff1673ffffffffffffffffffffffffffffffffffffffff1681526020019081526020016000206000828254610a7e919061152a565b925050819055507f7142bce0a5c347eea3e46575a17dd08e038b7fa95a3774e6d6c0da4f3b90b86834604051610ab49190611067565b60405180910390a1565b610ac6610d3a565b73ffffffffffffffffffffffffffffffffffffffff16610ae4610899565b73ffffffffffffffffffffffffffffffffffffffff1614610b3a576040517f08c379a0000000000000000000000000000000000000000000000000000000008152600401610b3190611273565b60405180910390fd5b600060149054906101000a900460ff1615600060146101000a81548160ff021916908315150217905550565b610b6e610d3a565b73ffffffffffffffffffffffffffffffffffffffff16610b8c610899565b73ffffffffffffffffffffffffffffffffffffffff1614610be2576040517f08c379a0000000000000000000000000000000000000000000000000000000008152600401610bd990611273565b60405180910390fd5b3373ffffffffffffffffffffffffffffffffffffffff166108fc829081150290604051600060405180830381858888f19350505050158015610c28573d6000803e3d6000fd5b5050565b610c34610d3a565b73ffffffffffffffffffffffffffffffffffffffff16610c52610899565b73ffffffffffffffffffffffffffffffffffffffff1614610ca8576040517f08c379a0000000000000000000000000000000000000000000000000000000008152600401610c9f90611273565b60405180910390fd5b600073ffffffffffffffffffffffffffffffffffffffff168173ffffffffffffffffffffffffffffffffffffffff1603610d17576040517f08c379a0000000000000000000000000000000000000000000000000000000008152600401610d0e906115f2565b60405180910390fd5b610d2081610d42565b50565b600082610d308584610e06565b1490509392505050565b600033905090565b60008060009054906101000a900473ffffffffffffffffffffffffffffffffffffffff169050816000806101000a81548173ffffffffffffffffffffffffffffffffffffffff021916908373ffffffffffffffffffffffffffffffffffffffff1602179055508173ffffffffffffffffffffffffffffffffffffffff168173ffffffffffffffffffffffffffffffffffffffff167f8be0079c531659141344cd1fd0a4f28419497f9722a3daafe3b4186f6b6457e060405160405180910390a35050565b60008082905060005b8451811015610e70576000858281518110610e2d57610e2c611612565b5b60200260200101519050808311610e4f57610e488382610e7b565b9250610e5c565b610e598184610e7b565b92505b508080610e6890611641565b915050610e0f565b508091505092915050565b600082600052816020526040600020905092915050565b60008115159050919050565b610ea781610e92565b82525050565b6000602082019050610ec26000830184610e9e565b92915050565b600080fd5b600080fd5b600073ffffffffffffffffffffffffffffffffffffffff82169050919050565b6000610efd82610ed2565b9050919050565b610f0d81610ef2565b8114610f1857600080fd5b50565b600081359050610f2a81610f04565b92915050565b600080fd5b600080fd5b600080fd5b60008083601f840112610f5557610f54610f30565b5b8235905067ffffffffffffffff811115610f7257610f71610f35565b5b602083019150836020820283011115610f8e57610f8d610f3a565b5b9250929050565b600080600060408486031215610fae57610fad610ec8565b5b6000610fbc86828701610f1b565b935050602084013567ffffffffffffffff811115610fdd57610fdc610ecd565b5b610fe986828701610f3f565b92509250509250925092565b6000819050919050565b61100881610ff5565b811461101357600080fd5b50565b60008135905061102581610fff565b92915050565b60006020828403121561104157611040610ec8565b5b600061104f84828501611016565b91505092915050565b61106181610ff5565b82525050565b600060208201905061107c6000830184611058565b92915050565b60006020828403121561109857611097610ec8565b5b60006110a684828501610f1b565b91505092915050565b600080602083850312156110c6576110c5610ec8565b5b600083013567ffffffffffffffff8111156110e4576110e3610ecd565b5b6110f085828601610f3f565b92509250509250929050565b61110581610ef2565b82525050565b600060208201905061112060008301846110fc565b92915050565b6000819050919050565b61113981611126565b811461114457600080fd5b50565b60008135905061115681611130565b92915050565b60006020828403121561117257611171610ec8565b5b600061118084828501611147565b91505092915050565b61119281611126565b82525050565b60006020820190506111ad6000830184611189565b92915050565b60008160601b9050919050565b60006111cb826111b3565b9050919050565b60006111dd826111c0565b9050919050565b6111f56111f082610ef2565b6111d2565b82525050565b600061120782846111e4565b60148201915081905092915050565b600082825260208201905092915050565b7f4f776e61626c653a2063616c6c6572206973206e6f7420746865206f776e6572600082015250565b600061125d602083611216565b915061126882611227565b602082019050919050565b6000602082019050818103600083015261128c81611250565b9050919050565b7f526566756e6420436c61696d206e6f7420656e61626c65640000000000000000600082015250565b60006112c9601883611216565b91506112d482611293565b602082019050919050565b600060208201905081810360008301526112f8816112bc565b9050919050565b7f596f7520617265206e6f742077686974656c6973746564000000000000000000600082015250565b6000611335601783611216565b9150611340826112ff565b602082019050919050565b6000602082019050818103600083015261136481611328565b9050919050565b7f596f75206861766520616c726561647920636c61696d656420796f757220726560008201527f66756e6400000000000000000000000000000000000000000000000000000000602082015250565b60006113c7602483611216565b91506113d28261136b565b604082019050919050565b600060208201905081810360008301526113f6816113ba565b9050919050565b7f506c61636520626964206d6f7265207468616e206d696e696d756d206269642060008201527f616d6f756e740000000000000000000000000000000000000000000000000000602082015250565b6000611459602683611216565b9150611464826113fd565b604082019050919050565b600060208201905081810360008301526114888161144c565b9050919050565b7f42696420506c6163656d656e74206e6f7420656e61626c656400000000000000600082015250565b60006114c5601983611216565b91506114d08261148f565b602082019050919050565b600060208201905081810360008301526114f4816114b8565b9050919050565b7f4e487b7100000000000000000000000000000000000000000000000000000000600052601160045260246000fd5b600061153582610ff5565b915061154083610ff5565b9250827fffffffffffffffffffffffffffffffffffffffffffffffffffffffffffffffff03821115611575576115746114fb565b5b828201905092915050565b7f4f776e61626c653a206e6577206f776e657220697320746865207a65726f206160008201527f6464726573730000000000000000000000000000000000000000000000000000602082015250565b60006115dc602683611216565b91506115e782611580565b604082019050919050565b6000602082019050818103600083015261160b816115cf565b9050919050565b7f4e487b7100000000000000000000000000000000000000000000000000000000600052603260045260246000fd5b600061164c82610ff5565b91507fffffffffffffffffffffffffffffffffffffffffffffffffffffffffffffffff820361167e5761167d6114fb565b5b60018201905091905056fea264697066735822122097d7cace93595db21be2dfa97a3343671ed64e7f8810443d4492dcb45e1a1d4b64736f6c634300080d0033",
  "immutableReferences": {},
  "source": "// SPDX-License-Identifier: MIT\npragma solidity ^0.8.0;\n\nimport \"@openzeppelin/contracts/access/Ownable.sol\";\nimport \"@openzeppelin/contracts/utils/cryptography/MerkleProof.sol\";\n\ncontract ChimpAuction is Ownable {\n    \n    bool public isAuctionEnabled;\n    bool public isClaimRefundEnabled;\n\n    uint256 public minBidAmount;\n    bytes32 public refundMerkleRoot;\n\n    mapping(address => uint256) public bids;\n    mapping(address => bool) public refundClaimed;\n\n    uint256 public totalBids;\n\n    event onBidPlaces(uint256);\n    event onRefundClaimed(uint256);\n\n    function flipAuctionState() public onlyOwner {\n        isAuctionEnabled = !isAuctionEnabled;\n    }\n\n    function flipClaimRefundEnabled() public onlyOwner {\n        isClaimRefundEnabled = !isClaimRefundEnabled;\n    }\n\n    function setMinBidAmount(uint256 amount) public onlyOwner {\n        minBidAmount = amount;\n    }\n\n    function placeBid() public payable {\n        require(\n            msg.value >= minBidAmount,\n            \"Place bid more than minimum bid amount\"\n        );\n        require(isAuctionEnabled, \"Bid Placement not enabled\");\n        totalBids += 1;\n        bids[msg.sender] += msg.value;\n        emit onBidPlaces(msg.value);\n    }\n\n    function withdrawETH(uint256 amount) public onlyOwner {\n        payable(msg.sender).transfer(amount);\n    }\n\n    function setRefundMerkleRoot(bytes32 root) public onlyOwner {\n        refundMerkleRoot = root;\n    }\n\n    function isQualifiedForRefund(address addr, bytes32[] calldata _merkleProof)\n        public\n        view\n        returns (bool)\n    {\n        bytes32 leaf = keccak256(abi.encodePacked(addr));\n        return MerkleProof.verify(_merkleProof, refundMerkleRoot, leaf);\n    }\n\n    function claimRefund(bytes32[] calldata _merkleProof) public {\n        require(isClaimRefundEnabled, \"Refund Claim not enabled\");\n\n        require(\n            isQualifiedForRefund(msg.sender, _merkleProof),\n            \"You are not whitelisted\"\n        );\n\n        require(\n            !refundClaimed[msg.sender],\n            \"You have already claimed your refund\"\n        );\n\n        refundClaimed[msg.sender] = true;\n        uint256 amount = bids[msg.sender];\n        payable(msg.sender).transfer(amount);\n        emit onRefundClaimed(amount);\n    }\n}\n",
  "sourcePath": "/Users/shahzeb/Desktop/projects/clients/leon/chimpdao/contracts/contracts/Auction/ChimpAuction.sol",
  "compiler": {
    "name": "solc",
    "version": "0.8.13+commit.abaa5c0e.Emscripten.clang"
  },
  "schemaVersion": "3.4.6",
  "updatedAt": "2022-05-12T20:33:54.030Z",
  "devdoc": {
    "kind": "dev",
    "methods": {
      "owner()": {
        "details": "Returns the address of the current owner."
      },
      "renounceOwnership()": {
        "details": "Leaves the contract without owner. It will not be possible to call `onlyOwner` functions anymore. Can only be called by the current owner. NOTE: Renouncing ownership will leave the contract without an owner, thereby removing any functionality that is only available to the owner."
      },
      "transferOwnership(address)": {
        "details": "Transfers ownership of the contract to a new account (`newOwner`). Can only be called by the current owner."
      }
    },
    "version": 1
  },
  "userdoc": {
    "kind": "user",
    "methods": {},
    "version": 1
  }
}