{
  "contractName": "ChimpNFT",
  "abi": [
    {
      "inputs": [],
      "stateMutability": "nonpayable",
      "type": "constructor"
    },
    {
      "inputs": [],
      "name": "ApprovalCallerNotOwnerNorApproved",
      "type": "error"
    },
    {
      "inputs": [],
      "name": "ApprovalQueryForNonexistentToken",
      "type": "error"
    },
    {
      "inputs": [],
      "name": "ApprovalToCurrentOwner",
      "type": "error"
    },
    {
      "inputs": [],
      "name": "ApproveToCaller",
      "type": "error"
    },
    {
      "inputs": [],
      "name": "BalanceQueryForZeroAddress",
      "type": "error"
    },
    {
      "inputs": [],
      "name": "MintToZeroAddress",
      "type": "error"
    },
    {
      "inputs": [],
      "name": "MintZeroQuantity",
      "type": "error"
    },
    {
      "inputs": [],
      "name": "OwnerQueryForNonexistentToken",
      "type": "error"
    },
    {
      "inputs": [],
      "name": "TransferCallerNotOwnerNorApproved",
      "type": "error"
    },
    {
      "inputs": [],
      "name": "TransferFromIncorrectOwner",
      "type": "error"
    },
    {
      "inputs": [],
      "name": "TransferToNonERC721ReceiverImplementer",
      "type": "error"
    },
    {
      "inputs": [],
      "name": "TransferToZeroAddress",
      "type": "error"
    },
    {
      "inputs": [],
      "name": "URIQueryForNonexistentToken",
      "type": "error"
    },
    {
      "anonymous": false,
      "inputs": [
        {
          "indexed": true,
          "internalType": "address",
          "name": "owner",
          "type": "address"
        },
        {
          "indexed": true,
          "internalType": "address",
          "name": "approved",
          "type": "address"
        },
        {
          "indexed": true,
          "internalType": "uint256",
          "name": "tokenId",
          "type": "uint256"
        }
      ],
      "name": "Approval",
      "type": "event"
    },
    {
      "anonymous": false,
      "inputs": [
        {
          "indexed": true,
          "internalType": "address",
          "name": "owner",
          "type": "address"
        },
        {
          "indexed": true,
          "internalType": "address",
          "name": "operator",
          "type": "address"
        },
        {
          "indexed": false,
          "internalType": "bool",
          "name": "approved",
          "type": "bool"
        }
      ],
      "name": "ApprovalForAll",
      "type": "event"
    },
    {
      "anonymous": false,
      "inputs": [
        {
          "indexed": true,
          "internalType": "address",
          "name": "previousOwner",
          "type": "address"
        },
        {
          "indexed": true,
          "internalType": "address",
          "name": "newOwner",
          "type": "address"
        }
      ],
      "name": "OwnershipTransferred",
      "type": "event"
    },
    {
      "anonymous": false,
      "inputs": [
        {
          "indexed": true,
          "internalType": "address",
          "name": "from",
          "type": "address"
        },
        {
          "indexed": true,
          "internalType": "address",
          "name": "to",
          "type": "address"
        },
        {
          "indexed": true,
          "internalType": "uint256",
          "name": "tokenId",
          "type": "uint256"
        }
      ],
      "name": "Transfer",
      "type": "event"
    },
    {
      "anonymous": false,
      "inputs": [],
      "name": "onClaimNFT",
      "type": "event"
    },
    {
      "inputs": [],
      "name": "MAX_SUPPLY",
      "outputs": [
        {
          "internalType": "uint256",
          "name": "",
          "type": "uint256"
        }
      ],
      "stateMutability": "view",
      "type": "function"
    },
    {
      "inputs": [
        {
          "internalType": "address",
          "name": "to",
          "type": "address"
        },
        {
          "internalType": "uint256",
          "name": "tokenId",
          "type": "uint256"
        }
      ],
      "name": "approve",
      "outputs": [],
      "stateMutability": "nonpayable",
      "type": "function"
    },
    {
      "inputs": [
        {
          "internalType": "address",
          "name": "owner",
          "type": "address"
        }
      ],
      "name": "balanceOf",
      "outputs": [
        {
          "internalType": "uint256",
          "name": "",
          "type": "uint256"
        }
      ],
      "stateMutability": "view",
      "type": "function"
    },
    {
      "inputs": [],
      "name": "baseURI",
      "outputs": [
        {
          "internalType": "string",
          "name": "",
          "type": "string"
        }
      ],
      "stateMutability": "view",
      "type": "function"
    },
    {
      "inputs": [
        {
          "internalType": "uint256",
          "name": "tokenId",
          "type": "uint256"
        }
      ],
      "name": "getApproved",
      "outputs": [
        {
          "internalType": "address",
          "name": "",
          "type": "address"
        }
      ],
      "stateMutability": "view",
      "type": "function"
    },
    {
      "inputs": [
        {
          "internalType": "address",
          "name": "owner",
          "type": "address"
        },
        {
          "internalType": "address",
          "name": "operator",
          "type": "address"
        }
      ],
      "name": "isApprovedForAll",
      "outputs": [
        {
          "internalType": "bool",
          "name": "",
          "type": "bool"
        }
      ],
      "stateMutability": "view",
      "type": "function"
    },
    {
      "inputs": [],
      "name": "name",
      "outputs": [
        {
          "internalType": "string",
          "name": "",
          "type": "string"
        }
      ],
      "stateMutability": "view",
      "type": "function"
    },
    {
      "inputs": [
        {
          "internalType": "address",
          "name": "",
          "type": "address"
        }
      ],
      "name": "nftClaims",
      "outputs": [
        {
          "internalType": "bool",
          "name": "",
          "type": "bool"
        }
      ],
      "stateMutability": "view",
      "type": "function"
    },
    {
      "inputs": [],
      "name": "owner",
      "outputs": [
        {
          "internalType": "address",
          "name": "",
          "type": "address"
        }
      ],
      "stateMutability": "view",
      "type": "function"
    },
    {
      "inputs": [
        {
          "internalType": "uint256",
          "name": "tokenId",
          "type": "uint256"
        }
      ],
      "name": "ownerOf",
      "outputs": [
        {
          "internalType": "address",
          "name": "",
          "type": "address"
        }
      ],
      "stateMutability": "view",
      "type": "function"
    },
    {
      "inputs": [],
      "name": "renounceOwnership",
      "outputs": [],
      "stateMutability": "nonpayable",
      "type": "function"
    },
    {
      "inputs": [
        {
          "internalType": "address",
          "name": "from",
          "type": "address"
        },
        {
          "internalType": "address",
          "name": "to",
          "type": "address"
        },
        {
          "internalType": "uint256",
          "name": "tokenId",
          "type": "uint256"
        }
      ],
      "name": "safeTransferFrom",
      "outputs": [],
      "stateMutability": "nonpayable",
      "type": "function"
    },
    {
      "inputs": [
        {
          "internalType": "address",
          "name": "from",
          "type": "address"
        },
        {
          "internalType": "address",
          "name": "to",
          "type": "address"
        },
        {
          "internalType": "uint256",
          "name": "tokenId",
          "type": "uint256"
        },
        {
          "internalType": "bytes",
          "name": "_data",
          "type": "bytes"
        }
      ],
      "name": "safeTransferFrom",
      "outputs": [],
      "stateMutability": "nonpayable",
      "type": "function"
    },
    {
      "inputs": [
        {
          "internalType": "address",
          "name": "operator",
          "type": "address"
        },
        {
          "internalType": "bool",
          "name": "approved",
          "type": "bool"
        }
      ],
      "name": "setApprovalForAll",
      "outputs": [],
      "stateMutability": "nonpayable",
      "type": "function"
    },
    {
      "inputs": [
        {
          "internalType": "bytes4",
          "name": "interfaceId",
          "type": "bytes4"
        }
      ],
      "name": "supportsInterface",
      "outputs": [
        {
          "internalType": "bool",
          "name": "",
          "type": "bool"
        }
      ],
      "stateMutability": "view",
      "type": "function"
    },
    {
      "inputs": [],
      "name": "symbol",
      "outputs": [
        {
          "internalType": "string",
          "name": "",
          "type": "string"
        }
      ],
      "stateMutability": "view",
      "type": "function"
    },
    {
      "inputs": [
        {
          "internalType": "uint256",
          "name": "tokenId",
          "type": "uint256"
        }
      ],
      "name": "tokenURI",
      "outputs": [
        {
          "internalType": "string",
          "name": "",
          "type": "string"
        }
      ],
      "stateMutability": "view",
      "type": "function"
    },
    {
      "inputs": [],
      "name": "totalSupply",
      "outputs": [
        {
          "internalType": "uint256",
          "name": "",
          "type": "uint256"
        }
      ],
      "stateMutability": "view",
      "type": "function"
    },
    {
      "inputs": [
        {
          "internalType": "address",
          "name": "from",
          "type": "address"
        },
        {
          "internalType": "address",
          "name": "to",
          "type": "address"
        },
        {
          "internalType": "uint256",
          "name": "tokenId",
          "type": "uint256"
        }
      ],
      "name": "transferFrom",
      "outputs": [],
      "stateMutability": "nonpayable",
      "type": "function"
    },
    {
      "inputs": [
        {
          "internalType": "address",
          "name": "newOwner",
          "type": "address"
        }
      ],
      "name": "transferOwnership",
      "outputs": [],
      "stateMutability": "nonpayable",
      "type": "function"
    },
    {
      "inputs": [],
      "name": "whitelistedMarkleRoot",
      "outputs": [
        {
          "internalType": "bytes32",
          "name": "",
          "type": "bytes32"
        }
      ],
      "stateMutability": "view",
      "type": "function"
    },
    {
      "inputs": [
        {
          "internalType": "bytes32",
          "name": "root",
          "type": "bytes32"
        }
      ],
      "name": "setWhitelistedMarkleRoot",
      "outputs": [],
      "stateMutability": "nonpayable",
      "type": "function"
    },
    {
      "inputs": [
        {
          "internalType": "string",
          "name": "uri",
          "type": "string"
        }
      ],
      "name": "setBaseURI",
      "outputs": [],
      "stateMutability": "nonpayable",
      "type": "function"
    },
    {
      "inputs": [
        {
          "internalType": "address",
          "name": "addr",
          "type": "address"
        },
        {
          "internalType": "bytes32[]",
          "name": "_merkleProof",
          "type": "bytes32[]"
        }
      ],
      "name": "isQualifiedForMint",
      "outputs": [
        {
          "internalType": "bool",
          "name": "",
          "type": "bool"
        }
      ],
      "stateMutability": "view",
      "type": "function"
    },
    {
      "inputs": [
        {
          "internalType": "bytes32[]",
          "name": "_merkleProof",
          "type": "bytes32[]"
        }
      ],
      "name": "claimNFT",
      "outputs": [],
      "stateMutability": "nonpayable",
      "type": "function"
    }
  ],
  "bytecode": "0x60806040523480156200001157600080fd5b506040518060400160405280600881526020017f4368696d704e46540000000000000000000000000000000000000000000000008152506040518060400160405280600881526020017f4368696d704e4654000000000000000000000000000000000000000000000000815250816002908051906020019062000096929190620001c1565b508060039080519060200190620000af929190620001c1565b50620000c0620000ee60201b60201c565b6000819055505050620000e8620000dc620000f360201b60201c565b620000fb60201b60201c565b620002d5565b600090565b600033905090565b6000600860009054906101000a900473ffffffffffffffffffffffffffffffffffffffff16905081600860006101000a81548173ffffffffffffffffffffffffffffffffffffffff021916908373ffffffffffffffffffffffffffffffffffffffff1602179055508173ffffffffffffffffffffffffffffffffffffffff168173ffffffffffffffffffffffffffffffffffffffff167f8be0079c531659141344cd1fd0a4f28419497f9722a3daafe3b4186f6b6457e060405160405180910390a35050565b828054620001cf90620002a0565b90600052602060002090601f016020900481019282620001f357600085556200023f565b82601f106200020e57805160ff19168380011785556200023f565b828001600101855582156200023f579182015b828111156200023e57825182559160200191906001019062000221565b5b5090506200024e919062000252565b5090565b5b808211156200026d57600081600090555060010162000253565b5090565b7f4e487b7100000000000000000000000000000000000000000000000000000000600052602260045260246000fd5b60006002820490506001821680620002b957607f821691505b602082108103620002cf57620002ce62000271565b5b50919050565b61334280620002e56000396000f3fe608060405234801561001057600080fd5b50600436106101735760003560e01c80636c0360eb116100de578063b88d4fde11610097578063de4b1e9211610071578063de4b1e921461044a578063e985e9c514610468578063edf8cb6014610498578063f2fde38b146104b457610173565b8063b88d4fde146103ce578063c87b56dd146103ea578063d54cf3351461041a57610173565b80636c0360eb1461031e57806370a082311461033c578063715018a61461036c5780638da5cb5b1461037657806395d89b4114610394578063a22cb465146103b257610173565b806323b872dd1161013057806323b872dd146102605780632bf2d18c1461027c57806332cb6b0c1461029857806342842e0e146102b657806355f804b3146102d25780636352211e146102ee57610173565b806301ffc9a71461017857806303ee582a146101a857806306fdde03146101d8578063081812fc146101f6578063095ea7b31461022657806318160ddd14610242575b600080fd5b610192600480360381019061018d9190612528565b6104d0565b60405161019f9190612570565b60405180910390f35b6101c260048036038101906101bd91906125e9565b6105b2565b6040516101cf9190612570565b60405180910390f35b6101e06105d2565b6040516101ed91906126af565b60405180910390f35b610210600480360381019061020b9190612707565b610664565b60405161021d9190612743565b60405180910390f35b610240600480360381019061023b919061275e565b6106e0565b005b61024a6107e4565b60405161025791906127ad565b60405180910390f35b61027a600480360381019061027591906127c8565b6107fb565b005b61029660048036038101906102919190612851565b61080b565b005b6102a0610891565b6040516102ad91906127ad565b60405180910390f35b6102d060048036038101906102cb91906127c8565b610897565b005b6102ec60048036038101906102e791906129b3565b6108b7565b005b61030860048036038101906103039190612707565b61094d565b6040516103159190612743565b60405180910390f35b610326610963565b60405161033391906126af565b60405180910390f35b610356600480360381019061035191906125e9565b6109f1565b60405161036391906127ad565b60405180910390f35b610374610ac0565b005b61037e610b48565b60405161038b9190612743565b60405180910390f35b61039c610b72565b6040516103a991906126af565b60405180910390f35b6103cc60048036038101906103c79190612a28565b610c04565b005b6103e860048036038101906103e39190612b09565b610d7b565b005b61040460048036038101906103ff9190612707565b610df3565b60405161041191906126af565b60405180910390f35b610434600480360381019061042f9190612bec565b610e91565b6040516104419190612570565b60405180910390f35b610452610f15565b60405161045f9190612c5b565b60405180910390f35b610482600480360381019061047d9190612c76565b610f1b565b60405161048f9190612570565b60405180910390f35b6104b260048036038101906104ad9190612cb6565b610faf565b005b6104ce60048036038101906104c991906125e9565b611171565b005b60007f80ac58cd000000000000000000000000000000000000000000000000000000007bffffffffffffffffffffffffffffffffffffffffffffffffffffffff1916827bffffffffffffffffffffffffffffffffffffffffffffffffffffffff1916148061059b57507f5b5e139f000000000000000000000000000000000000000000000000000000007bffffffffffffffffffffffffffffffffffffffffffffffffffffffff1916827bffffffffffffffffffffffffffffffffffffffffffffffffffffffff1916145b806105ab57506105aa82611268565b5b9050919050565b600b6020528060005260406000206000915054906101000a900460ff1681565b6060600280546105e190612d32565b80601f016020809104026020016040519081016040528092919081815260200182805461060d90612d32565b801561065a5780601f1061062f5761010080835404028352916020019161065a565b820191906000526020600020905b81548152906001019060200180831161063d57829003601f168201915b5050505050905090565b600061066f826112d2565b6106a5576040517fcf4700e400000000000000000000000000000000000000000000000000000000815260040160405180910390fd5b6006600083815260200190815260200160002060009054906101000a900473ffffffffffffffffffffffffffffffffffffffff169050919050565b60006106eb8261094d565b90508073ffffffffffffffffffffffffffffffffffffffff168373ffffffffffffffffffffffffffffffffffffffff1603610752576040517f943f7b8c00000000000000000000000000000000000000000000000000000000815260040160405180910390fd5b8073ffffffffffffffffffffffffffffffffffffffff16610771611320565b73ffffffffffffffffffffffffffffffffffffffff16146107d45761079d81610798611320565b610f1b565b6107d3576040517fcfb3b94200000000000000000000000000000000000000000000000000000000815260040160405180910390fd5b5b6107df838383611328565b505050565b60006107ee6113da565b6001546000540303905090565b6108068383836113df565b505050565b610813611320565b73ffffffffffffffffffffffffffffffffffffffff16610831610b48565b73ffffffffffffffffffffffffffffffffffffffff1614610887576040517f08c379a000000000000000000000000000000000000000000000000000000000815260040161087e90612daf565b60405180910390fd5b8060098190555050565b6103e881565b6108b283838360405180602001604052806000815250610d7b565b505050565b6108bf611320565b73ffffffffffffffffffffffffffffffffffffffff166108dd610b48565b73ffffffffffffffffffffffffffffffffffffffff1614610933576040517f08c379a000000000000000000000000000000000000000000000000000000000815260040161092a90612daf565b60405180910390fd5b80600a90805190602001906109499291906123d6565b5050565b600061095882611893565b600001519050919050565b600a805461097090612d32565b80601f016020809104026020016040519081016040528092919081815260200182805461099c90612d32565b80156109e95780601f106109be576101008083540402835291602001916109e9565b820191906000526020600020905b8154815290600101906020018083116109cc57829003601f168201915b505050505081565b60008073ffffffffffffffffffffffffffffffffffffffff168273ffffffffffffffffffffffffffffffffffffffff1603610a58576040517f8f4eb60400000000000000000000000000000000000000000000000000000000815260040160405180910390fd5b600560008373ffffffffffffffffffffffffffffffffffffffff1673ffffffffffffffffffffffffffffffffffffffff16815260200190815260200160002060000160009054906101000a900467ffffffffffffffff1667ffffffffffffffff169050919050565b610ac8611320565b73ffffffffffffffffffffffffffffffffffffffff16610ae6610b48565b73ffffffffffffffffffffffffffffffffffffffff1614610b3c576040517f08c379a0000000000000000000000000000000000000000000000000000000008152600401610b3390612daf565b60405180910390fd5b610b466000611b1e565b565b6000600860009054906101000a900473ffffffffffffffffffffffffffffffffffffffff16905090565b606060038054610b8190612d32565b80601f0160208091040260200160405190810160405280929190818152602001828054610bad90612d32565b8015610bfa5780601f10610bcf57610100808354040283529160200191610bfa565b820191906000526020600020905b815481529060010190602001808311610bdd57829003601f168201915b5050505050905090565b610c0c611320565b73ffffffffffffffffffffffffffffffffffffffff168273ffffffffffffffffffffffffffffffffffffffff1603610c70576040517fb06307db00000000000000000000000000000000000000000000000000000000815260040160405180910390fd5b8060076000610c7d611320565b73ffffffffffffffffffffffffffffffffffffffff1673ffffffffffffffffffffffffffffffffffffffff16815260200190815260200160002060008473ffffffffffffffffffffffffffffffffffffffff1673ffffffffffffffffffffffffffffffffffffffff16815260200190815260200160002060006101000a81548160ff0219169083151502179055508173ffffffffffffffffffffffffffffffffffffffff16610d2a611320565b73ffffffffffffffffffffffffffffffffffffffff167f17307eab39ab6107e8899845ad3d59bd9653f200f220920489ca2b5937696c3183604051610d6f9190612570565b60405180910390a35050565b610d868484846113df565b610da58373ffffffffffffffffffffffffffffffffffffffff16611be4565b15610ded57610db684848484611c07565b610dec576040517fd1a57ed600000000000000000000000000000000000000000000000000000000815260040160405180910390fd5b5b50505050565b6060610dfe826112d2565b610e34576040517fa14c4b5000000000000000000000000000000000000000000000000000000000815260040160405180910390fd5b6000610e3e611d57565b90506000815103610e5e5760405180602001604052806000815250610e89565b80610e6884611de9565b604051602001610e79929190612e0b565b6040516020818303038152906040525b915050919050565b60008084604051602001610ea59190612e77565b604051602081830303815290604052805190602001209050610f0b848480806020026020016040519081016040528093929190818152602001838360200280828437600081840152601f19601f8201169050808301925050505050505060095483611f49565b9150509392505050565b60095481565b6000600760008473ffffffffffffffffffffffffffffffffffffffff1673ffffffffffffffffffffffffffffffffffffffff16815260200190815260200160002060008373ffffffffffffffffffffffffffffffffffffffff1673ffffffffffffffffffffffffffffffffffffffff16815260200190815260200160002060009054906101000a900460ff16905092915050565b6103e86001610fbc6107e4565b610fc69190612ec1565b1115611007576040517f08c379a0000000000000000000000000000000000000000000000000000000008152600401610ffe90612f63565b60405180910390fd5b611012338383610e91565b611051576040517f08c379a000000000000000000000000000000000000000000000000000000000815260040161104890612fcf565b60405180910390fd5b600b60003373ffffffffffffffffffffffffffffffffffffffff1673ffffffffffffffffffffffffffffffffffffffff16815260200190815260200160002060009054906101000a900460ff16156110de576040517f08c379a00000000000000000000000000000000000000000000000000000000081526004016110d59061303b565b60405180910390fd5b6001600b60003373ffffffffffffffffffffffffffffffffffffffff1673ffffffffffffffffffffffffffffffffffffffff16815260200190815260200160002060006101000a81548160ff021916908315150217905550611141336001611f60565b7f47ad3b6c3ed0a717039c3d98aabc4bb2e12b91b7723c2fafb52186f72c5b77b660405160405180910390a15050565b611179611320565b73ffffffffffffffffffffffffffffffffffffffff16611197610b48565b73ffffffffffffffffffffffffffffffffffffffff16146111ed576040517f08c379a00000000000000000000000000000000000000000000000000000000081526004016111e490612daf565b60405180910390fd5b600073ffffffffffffffffffffffffffffffffffffffff168173ffffffffffffffffffffffffffffffffffffffff160361125c576040517f08c379a0000000000000000000000000000000000000000000000000000000008152600401611253906130cd565b60405180910390fd5b61126581611b1e565b50565b60007f01ffc9a7000000000000000000000000000000000000000000000000000000007bffffffffffffffffffffffffffffffffffffffffffffffffffffffff1916827bffffffffffffffffffffffffffffffffffffffffffffffffffffffff1916149050919050565b6000816112dd6113da565b111580156112ec575060005482105b8015611319575060046000838152602001908152602001600020600001601c9054906101000a900460ff16155b9050919050565b600033905090565b826006600084815260200190815260200160002060006101000a81548173ffffffffffffffffffffffffffffffffffffffff021916908373ffffffffffffffffffffffffffffffffffffffff160217905550818373ffffffffffffffffffffffffffffffffffffffff168273ffffffffffffffffffffffffffffffffffffffff167f8c5be1e5ebec7d5bd14f71427d1e84f3dd0314c0f7b2291e5b200ac8c7c3b92560405160405180910390a4505050565b600090565b60006113ea82611893565b90508373ffffffffffffffffffffffffffffffffffffffff16816000015173ffffffffffffffffffffffffffffffffffffffff1614611455576040517fa114810000000000000000000000000000000000000000000000000000000000815260040160405180910390fd5b60008473ffffffffffffffffffffffffffffffffffffffff16611476611320565b73ffffffffffffffffffffffffffffffffffffffff1614806114a557506114a48561149f611320565b610f1b565b5b806114ea57506114b3611320565b73ffffffffffffffffffffffffffffffffffffffff166114d284610664565b73ffffffffffffffffffffffffffffffffffffffff16145b905080611523576040517f59c896be00000000000000000000000000000000000000000000000000000000815260040160405180910390fd5b600073ffffffffffffffffffffffffffffffffffffffff168473ffffffffffffffffffffffffffffffffffffffff1603611589576040517fea553b3400000000000000000000000000000000000000000000000000000000815260040160405180910390fd5b6115968585856001611f7e565b6115a260008487611328565b6001600560008773ffffffffffffffffffffffffffffffffffffffff1673ffffffffffffffffffffffffffffffffffffffff16815260200190815260200160002060000160008282829054906101000a900467ffffffffffffffff160392506101000a81548167ffffffffffffffff021916908367ffffffffffffffff1602179055506001600560008673ffffffffffffffffffffffffffffffffffffffff1673ffffffffffffffffffffffffffffffffffffffff16815260200190815260200160002060000160008282829054906101000a900467ffffffffffffffff160192506101000a81548167ffffffffffffffff021916908367ffffffffffffffff1602179055506000600460008581526020019081526020016000209050848160000160006101000a81548173ffffffffffffffffffffffffffffffffffffffff021916908373ffffffffffffffffffffffffffffffffffffffff160217905550428160000160146101000a81548167ffffffffffffffff021916908367ffffffffffffffff16021790555060006001850190506000600460008381526020019081526020016000209050600073ffffffffffffffffffffffffffffffffffffffff168160000160009054906101000a900473ffffffffffffffffffffffffffffffffffffffff1673ffffffffffffffffffffffffffffffffffffffff160361182157600054821461182057878160000160006101000a81548173ffffffffffffffffffffffffffffffffffffffff021916908373ffffffffffffffffffffffffffffffffffffffff16021790555084602001518160000160146101000a81548167ffffffffffffffff021916908367ffffffffffffffff1602179055505b5b505050828473ffffffffffffffffffffffffffffffffffffffff168673ffffffffffffffffffffffffffffffffffffffff167fddf252ad1be2c89b69c2b068fc378daa952ba7f163c4a11628f55a4df523b3ef60405160405180910390a461188c8585856001611f84565b5050505050565b61189b61245c565b6000829050806118a96113da565b11611ae757600054811015611ae6576000600460008381526020019081526020016000206040518060600160405290816000820160009054906101000a900473ffffffffffffffffffffffffffffffffffffffff1673ffffffffffffffffffffffffffffffffffffffff1673ffffffffffffffffffffffffffffffffffffffff1681526020016000820160149054906101000a900467ffffffffffffffff1667ffffffffffffffff1667ffffffffffffffff16815260200160008201601c9054906101000a900460ff16151515158152505090508060400151611ae457600073ffffffffffffffffffffffffffffffffffffffff16816000015173ffffffffffffffffffffffffffffffffffffffff16146119c8578092505050611b19565b5b600115611ae357818060019003925050600460008381526020019081526020016000206040518060600160405290816000820160009054906101000a900473ffffffffffffffffffffffffffffffffffffffff1673ffffffffffffffffffffffffffffffffffffffff1673ffffffffffffffffffffffffffffffffffffffff1681526020016000820160149054906101000a900467ffffffffffffffff1667ffffffffffffffff1667ffffffffffffffff16815260200160008201601c9054906101000a900460ff1615151515815250509050600073ffffffffffffffffffffffffffffffffffffffff16816000015173ffffffffffffffffffffffffffffffffffffffff1614611ade578092505050611b19565b6119c9565b5b505b5b6040517fdf2d9b4200000000000000000000000000000000000000000000000000000000815260040160405180910390fd5b919050565b6000600860009054906101000a900473ffffffffffffffffffffffffffffffffffffffff16905081600860006101000a81548173ffffffffffffffffffffffffffffffffffffffff021916908373ffffffffffffffffffffffffffffffffffffffff1602179055508173ffffffffffffffffffffffffffffffffffffffff168173ffffffffffffffffffffffffffffffffffffffff167f8be0079c531659141344cd1fd0a4f28419497f9722a3daafe3b4186f6b6457e060405160405180910390a35050565b6000808273ffffffffffffffffffffffffffffffffffffffff163b119050919050565b60008373ffffffffffffffffffffffffffffffffffffffff1663150b7a02611c2d611320565b8786866040518563ffffffff1660e01b8152600401611c4f9493929190613142565b6020604051808303816000875af1925050508015611c8b57506040513d601f19601f82011682018060405250810190611c8891906131a3565b60015b611d04573d8060008114611cbb576040519150601f19603f3d011682016040523d82523d6000602084013e611cc0565b606091505b506000815103611cfc576040517fd1a57ed600000000000000000000000000000000000000000000000000000000815260040160405180910390fd5b805181602001fd5b63150b7a0260e01b7bffffffffffffffffffffffffffffffffffffffffffffffffffffffff1916817bffffffffffffffffffffffffffffffffffffffffffffffffffffffff191614915050949350505050565b6060600a8054611d6690612d32565b80601f0160208091040260200160405190810160405280929190818152602001828054611d9290612d32565b8015611ddf5780601f10611db457610100808354040283529160200191611ddf565b820191906000526020600020905b815481529060010190602001808311611dc257829003601f168201915b5050505050905090565b606060008203611e30576040518060400160405280600181526020017f30000000000000000000000000000000000000000000000000000000000000008152509050611f44565b600082905060005b60008214611e62578080611e4b906131d0565b915050600a82611e5b9190613247565b9150611e38565b60008167ffffffffffffffff811115611e7e57611e7d612888565b5b6040519080825280601f01601f191660200182016040528015611eb05781602001600182028036833780820191505090505b5090505b60008514611f3d57600182611ec99190613278565b9150600a85611ed891906132ac565b6030611ee49190612ec1565b60f81b818381518110611efa57611ef96132dd565b5b60200101907effffffffffffffffffffffffffffffffffffffffffffffffffffffffffffff1916908160001a905350600a85611f369190613247565b9450611eb4565b8093505050505b919050565b600082611f568584611f8a565b1490509392505050565b611f7a828260405180602001604052806000815250611fff565b5050565b50505050565b50505050565b60008082905060005b8451811015611ff4576000858281518110611fb157611fb06132dd565b5b60200260200101519050808311611fd357611fcc83826123bf565b9250611fe0565b611fdd81846123bf565b92505b508080611fec906131d0565b915050611f93565b508091505092915050565b600080549050600073ffffffffffffffffffffffffffffffffffffffff168473ffffffffffffffffffffffffffffffffffffffff160361206b576040517f2e07630000000000000000000000000000000000000000000000000000000000815260040160405180910390fd5b600083036120a5576040517fb562e8dd00000000000000000000000000000000000000000000000000000000815260040160405180910390fd5b6120b26000858386611f7e565b82600560008673ffffffffffffffffffffffffffffffffffffffff1673ffffffffffffffffffffffffffffffffffffffff16815260200190815260200160002060000160008282829054906101000a900467ffffffffffffffff160192506101000a81548167ffffffffffffffff021916908367ffffffffffffffff16021790555082600560008673ffffffffffffffffffffffffffffffffffffffff1673ffffffffffffffffffffffffffffffffffffffff16815260200190815260200160002060000160088282829054906101000a900467ffffffffffffffff160192506101000a81548167ffffffffffffffff021916908367ffffffffffffffff160217905550836004600083815260200190815260200160002060000160006101000a81548173ffffffffffffffffffffffffffffffffffffffff021916908373ffffffffffffffffffffffffffffffffffffffff160217905550426004600083815260200190815260200160002060000160146101000a81548167ffffffffffffffff021916908367ffffffffffffffff1602179055506000819050600084820190506122738673ffffffffffffffffffffffffffffffffffffffff16611be4565b15612338575b818673ffffffffffffffffffffffffffffffffffffffff16600073ffffffffffffffffffffffffffffffffffffffff167fddf252ad1be2c89b69c2b068fc378daa952ba7f163c4a11628f55a4df523b3ef60405160405180910390a46122e86000878480600101955087611c07565b61231e576040517fd1a57ed600000000000000000000000000000000000000000000000000000000815260040160405180910390fd5b80821061227957826000541461233357600080fd5b6123a3565b5b818060010192508673ffffffffffffffffffffffffffffffffffffffff16600073ffffffffffffffffffffffffffffffffffffffff167fddf252ad1be2c89b69c2b068fc378daa952ba7f163c4a11628f55a4df523b3ef60405160405180910390a4808210612339575b8160008190555050506123b96000858386611f84565b50505050565b600082600052816020526040600020905092915050565b8280546123e290612d32565b90600052602060002090601f016020900481019282612404576000855561244b565b82601f1061241d57805160ff191683800117855561244b565b8280016001018555821561244b579182015b8281111561244a57825182559160200191906001019061242f565b5b509050612458919061249f565b5090565b6040518060600160405280600073ffffffffffffffffffffffffffffffffffffffff168152602001600067ffffffffffffffff1681526020016000151581525090565b5b808211156124b85760008160009055506001016124a0565b5090565b6000604051905090565b600080fd5b600080fd5b60007fffffffff0000000000000000000000000000000000000000000000000000000082169050919050565b612505816124d0565b811461251057600080fd5b50565b600081359050612522816124fc565b92915050565b60006020828403121561253e5761253d6124c6565b5b600061254c84828501612513565b91505092915050565b60008115159050919050565b61256a81612555565b82525050565b60006020820190506125856000830184612561565b92915050565b600073ffffffffffffffffffffffffffffffffffffffff82169050919050565b60006125b68261258b565b9050919050565b6125c6816125ab565b81146125d157600080fd5b50565b6000813590506125e3816125bd565b92915050565b6000602082840312156125ff576125fe6124c6565b5b600061260d848285016125d4565b91505092915050565b600081519050919050565b600082825260208201905092915050565b60005b83811015612650578082015181840152602081019050612635565b8381111561265f576000848401525b50505050565b6000601f19601f8301169050919050565b600061268182612616565b61268b8185612621565b935061269b818560208601612632565b6126a481612665565b840191505092915050565b600060208201905081810360008301526126c98184612676565b905092915050565b6000819050919050565b6126e4816126d1565b81146126ef57600080fd5b50565b600081359050612701816126db565b92915050565b60006020828403121561271d5761271c6124c6565b5b600061272b848285016126f2565b91505092915050565b61273d816125ab565b82525050565b60006020820190506127586000830184612734565b92915050565b60008060408385031215612775576127746124c6565b5b6000612783858286016125d4565b9250506020612794858286016126f2565b9150509250929050565b6127a7816126d1565b82525050565b60006020820190506127c2600083018461279e565b92915050565b6000806000606084860312156127e1576127e06124c6565b5b60006127ef868287016125d4565b9350506020612800868287016125d4565b9250506040612811868287016126f2565b9150509250925092565b6000819050919050565b61282e8161281b565b811461283957600080fd5b50565b60008135905061284b81612825565b92915050565b600060208284031215612867576128666124c6565b5b60006128758482850161283c565b91505092915050565b600080fd5b600080fd5b7f4e487b7100000000000000000000000000000000000000000000000000000000600052604160045260246000fd5b6128c082612665565b810181811067ffffffffffffffff821117156128df576128de612888565b5b80604052505050565b60006128f26124bc565b90506128fe82826128b7565b919050565b600067ffffffffffffffff82111561291e5761291d612888565b5b61292782612665565b9050602081019050919050565b82818337600083830152505050565b600061295661295184612903565b6128e8565b90508281526020810184848401111561297257612971612883565b5b61297d848285612934565b509392505050565b600082601f83011261299a5761299961287e565b5b81356129aa848260208601612943565b91505092915050565b6000602082840312156129c9576129c86124c6565b5b600082013567ffffffffffffffff8111156129e7576129e66124cb565b5b6129f384828501612985565b91505092915050565b612a0581612555565b8114612a1057600080fd5b50565b600081359050612a22816129fc565b92915050565b60008060408385031215612a3f57612a3e6124c6565b5b6000612a4d858286016125d4565b9250506020612a5e85828601612a13565b9150509250929050565b600067ffffffffffffffff821115612a8357612a82612888565b5b612a8c82612665565b9050602081019050919050565b6000612aac612aa784612a68565b6128e8565b905082815260208101848484011115612ac857612ac7612883565b5b612ad3848285612934565b509392505050565b600082601f830112612af057612aef61287e565b5b8135612b00848260208601612a99565b91505092915050565b60008060008060808587031215612b2357612b226124c6565b5b6000612b31878288016125d4565b9450506020612b42878288016125d4565b9350506040612b53878288016126f2565b925050606085013567ffffffffffffffff811115612b7457612b736124cb565b5b612b8087828801612adb565b91505092959194509250565b600080fd5b600080fd5b60008083601f840112612bac57612bab61287e565b5b8235905067ffffffffffffffff811115612bc957612bc8612b8c565b5b602083019150836020820283011115612be557612be4612b91565b5b9250929050565b600080600060408486031215612c0557612c046124c6565b5b6000612c13868287016125d4565b935050602084013567ffffffffffffffff811115612c3457612c336124cb565b5b612c4086828701612b96565b92509250509250925092565b612c558161281b565b82525050565b6000602082019050612c706000830184612c4c565b92915050565b60008060408385031215612c8d57612c8c6124c6565b5b6000612c9b858286016125d4565b9250506020612cac858286016125d4565b9150509250929050565b60008060208385031215612ccd57612ccc6124c6565b5b600083013567ffffffffffffffff811115612ceb57612cea6124cb565b5b612cf785828601612b96565b92509250509250929050565b7f4e487b7100000000000000000000000000000000000000000000000000000000600052602260045260246000fd5b60006002820490506001821680612d4a57607f821691505b602082108103612d5d57612d5c612d03565b5b50919050565b7f4f776e61626c653a2063616c6c6572206973206e6f7420746865206f776e6572600082015250565b6000612d99602083612621565b9150612da482612d63565b602082019050919050565b60006020820190508181036000830152612dc881612d8c565b9050919050565b600081905092915050565b6000612de582612616565b612def8185612dcf565b9350612dff818560208601612632565b80840191505092915050565b6000612e178285612dda565b9150612e238284612dda565b91508190509392505050565b60008160601b9050919050565b6000612e4782612e2f565b9050919050565b6000612e5982612e3c565b9050919050565b612e71612e6c826125ab565b612e4e565b82525050565b6000612e838284612e60565b60148201915081905092915050565b7f4e487b7100000000000000000000000000000000000000000000000000000000600052601160045260246000fd5b6000612ecc826126d1565b9150612ed7836126d1565b9250827fffffffffffffffffffffffffffffffffffffffffffffffffffffffffffffffff03821115612f0c57612f0b612e92565b5b828201905092915050565b7f4d617820537570706c7920457863656564730000000000000000000000000000600082015250565b6000612f4d601283612621565b9150612f5882612f17565b602082019050919050565b60006020820190508181036000830152612f7c81612f40565b9050919050565b7f4e6f742057686974656c69737465640000000000000000000000000000000000600082015250565b6000612fb9600f83612621565b9150612fc482612f83565b602082019050919050565b60006020820190508181036000830152612fe881612fac565b9050919050565b7f43616e277420436c61696d205477696365000000000000000000000000000000600082015250565b6000613025601183612621565b915061303082612fef565b602082019050919050565b6000602082019050818103600083015261305481613018565b9050919050565b7f4f776e61626c653a206e6577206f776e657220697320746865207a65726f206160008201527f6464726573730000000000000000000000000000000000000000000000000000602082015250565b60006130b7602683612621565b91506130c28261305b565b604082019050919050565b600060208201905081810360008301526130e6816130aa565b9050919050565b600081519050919050565b600082825260208201905092915050565b6000613114826130ed565b61311e81856130f8565b935061312e818560208601612632565b61313781612665565b840191505092915050565b60006080820190506131576000830187612734565b6131646020830186612734565b613171604083018561279e565b81810360608301526131838184613109565b905095945050505050565b60008151905061319d816124fc565b92915050565b6000602082840312156131b9576131b86124c6565b5b60006131c78482850161318e565b91505092915050565b60006131db826126d1565b91507fffffffffffffffffffffffffffffffffffffffffffffffffffffffffffffffff820361320d5761320c612e92565b5b600182019050919050565b7f4e487b7100000000000000000000000000000000000000000000000000000000600052601260045260246000fd5b6000613252826126d1565b915061325d836126d1565b92508261326d5761326c613218565b5b828204905092915050565b6000613283826126d1565b915061328e836126d1565b9250828210156132a1576132a0612e92565b5b828203905092915050565b60006132b7826126d1565b91506132c2836126d1565b9250826132d2576132d1613218565b5b828206905092915050565b7f4e487b7100000000000000000000000000000000000000000000000000000000600052603260045260246000fdfea26469706673582212200ab40a8b7359ba62c4fda31266701ca5c088baa16d84d5c2c88ba90a782b4c9864736f6c634300080d0033",
  "immutableReferences": {},
  "source": "// SPDX-License-Identifier: MIT\npragma solidity ^0.8.0;\n\nimport \"erc721a/contracts/ERC721A.sol\";\nimport \"@openzeppelin/contracts/utils/cryptography/MerkleProof.sol\";\nimport \"@openzeppelin/contracts/access/Ownable.sol\";\n\ncontract ChimpNFT is ERC721A, Ownable {\n    uint256 public constant MAX_SUPPLY = 1000;\n    bytes32 public whitelistedMarkleRoot;\n    string public baseURI;\n    mapping(address => bool) public nftClaims;\n\n    event onClaimNFT();\n\n    constructor() ERC721A(\"ChimpNFT\", \"ChimpNFT\") {}\n\n    function setWhitelistedMarkleRoot(bytes32 root) public onlyOwner {\n        whitelistedMarkleRoot = root;\n    }\n\n    function setBaseURI(string memory uri) public onlyOwner {\n        baseURI = uri;\n    }\n\n    function isQualifiedForMint(address addr, bytes32[] calldata _merkleProof)\n        public\n        view\n        returns (bool)\n    {\n        bytes32 leaf = keccak256(abi.encodePacked(addr));\n        return MerkleProof.verify(_merkleProof, whitelistedMarkleRoot, leaf);\n    }\n\n    function claimNFT(bytes32[] calldata _merkleProof) external {\n        require(totalSupply() + 1 <= MAX_SUPPLY, \"Max Supply Exceeds\");\n        require(\n            isQualifiedForMint(msg.sender, _merkleProof),\n            \"Not Whitelisted\"\n        );\n        require(!nftClaims[msg.sender], \"Can't Claim Twice\");\n        nftClaims[msg.sender] = true;\n        _safeMint(msg.sender, 1);\n        emit onClaimNFT();\n    }\n\n    function _baseURI() internal view virtual override returns (string memory) {\n        return baseURI;\n    }\n}\n",
  "sourcePath": "/Users/shahzeb/Desktop/projects/clients/leon/chimpdao/contracts/contracts/NFT/ChimpNFT.sol",
  "compiler": {
    "name": "solc",
    "version": "0.8.13+commit.abaa5c0e.Emscripten.clang"
  },
  "schemaVersion": "3.4.6",
  "updatedAt": "2022-08-18T20:23:20.136Z",
  "devdoc": {
    "kind": "dev",
    "methods": {
      "approve(address,uint256)": {
        "details": "See {IERC721-approve}."
      },
      "balanceOf(address)": {
        "details": "See {IERC721-balanceOf}."
      },
      "getApproved(uint256)": {
        "details": "See {IERC721-getApproved}."
      },
      "isApprovedForAll(address,address)": {
        "details": "See {IERC721-isApprovedForAll}."
      },
      "name()": {
        "details": "See {IERC721Metadata-name}."
      },
      "owner()": {
        "details": "Returns the address of the current owner."
      },
      "ownerOf(uint256)": {
        "details": "See {IERC721-ownerOf}."
      },
      "renounceOwnership()": {
        "details": "Leaves the contract without owner. It will not be possible to call `onlyOwner` functions anymore. Can only be called by the current owner. NOTE: Renouncing ownership will leave the contract without an owner, thereby removing any functionality that is only available to the owner."
      },
      "safeTransferFrom(address,address,uint256)": {
        "details": "See {IERC721-safeTransferFrom}."
      },
      "safeTransferFrom(address,address,uint256,bytes)": {
        "details": "See {IERC721-safeTransferFrom}."
      },
      "setApprovalForAll(address,bool)": {
        "details": "See {IERC721-setApprovalForAll}."
      },
      "supportsInterface(bytes4)": {
        "details": "See {IERC165-supportsInterface}."
      },
      "symbol()": {
        "details": "See {IERC721Metadata-symbol}."
      },
      "tokenURI(uint256)": {
        "details": "See {IERC721Metadata-tokenURI}."
      },
      "totalSupply()": {
        "details": "Burned tokens are calculated here, use _totalMinted() if you want to count just minted tokens."
      },
      "transferFrom(address,address,uint256)": {
        "details": "See {IERC721-transferFrom}."
      },
      "transferOwnership(address)": {
        "details": "Transfers ownership of the contract to a new account (`newOwner`). Can only be called by the current owner."
      }
    },
    "version": 1
  },
  "userdoc": {
    "errors": {
      "ApprovalCallerNotOwnerNorApproved()": [
        {
          "notice": "The caller must own the token or be an approved operator."
        }
      ],
      "ApprovalQueryForNonexistentToken()": [
        {
          "notice": "The token does not exist."
        }
      ],
      "ApprovalToCurrentOwner()": [
        {
          "notice": "The caller cannot approve to the current owner."
        }
      ],
      "ApproveToCaller()": [
        {
          "notice": "The caller cannot approve to their own address."
        }
      ],
      "BalanceQueryForZeroAddress()": [
        {
          "notice": "Cannot query the balance for the zero address."
        }
      ],
      "MintToZeroAddress()": [
        {
          "notice": "Cannot mint to the zero address."
        }
      ],
      "MintZeroQuantity()": [
        {
          "notice": "The quantity of tokens minted must be more than zero."
        }
      ],
      "OwnerQueryForNonexistentToken()": [
        {
          "notice": "The token does not exist."
        }
      ],
      "TransferCallerNotOwnerNorApproved()": [
        {
          "notice": "The caller must own the token or be an approved operator."
        }
      ],
      "TransferFromIncorrectOwner()": [
        {
          "notice": "The token must be owned by `from`."
        }
      ],
      "TransferToNonERC721ReceiverImplementer()": [
        {
          "notice": "Cannot safely transfer to a contract that does not implement the ERC721Receiver interface."
        }
      ],
      "TransferToZeroAddress()": [
        {
          "notice": "Cannot transfer to the zero address."
        }
      ],
      "URIQueryForNonexistentToken()": [
        {
          "notice": "The token does not exist."
        }
      ]
    },
    "kind": "user",
    "methods": {},
    "version": 1
  }
}